{
  "_format": "hh-sol-artifact-1",
  "contractName": "AsyncVault",
  "sourceName": "contracts/erc7540/HTSDeprecated/AsyncVault.sol",
  "abi": [
    {
      "inputs": [
        {
          "internalType": "contract ERC20",
          "name": "_underlying",
          "type": "address"
        },
        {
          "internalType": "string",
          "name": "_name",
          "type": "string"
        },
        {
          "internalType": "string",
          "name": "_symbol",
          "type": "string"
        },
        {
          "components": [
            {
              "internalType": "address",
              "name": "receiver",
              "type": "address"
            },
            {
              "internalType": "address",
              "name": "token",
              "type": "address"
            },
            {
              "internalType": "uint256",
              "name": "feePercentage",
              "type": "uint256"
            }
          ],
          "internalType": "struct FeeConfiguration.FeeConfig",
          "name": "_feeConfig",
          "type": "tuple"
        },
        {
          "internalType": "address",
          "name": "_vaultRewardController",
          "type": "address"
        },
        {
          "internalType": "address",
          "name": "_feeConfigController",
          "type": "address"
        }
      ],
      "stateMutability": "payable",
      "type": "constructor"
    },
    {
      "inputs": [],
      "name": "AccessControlBadConfirmation",
      "type": "error"
    },
    {
      "inputs": [
        {
          "internalType": "address",
          "name": "account",
          "type": "address"
        },
        {
          "internalType": "bytes32",
          "name": "neededRole",
          "type": "bytes32"
        }
      ],
      "name": "AccessControlUnauthorizedAccount",
      "type": "error"
    },
    {
      "inputs": [
        {
          "internalType": "address",
          "name": "target",
          "type": "address"
        }
      ],
      "name": "AddressEmptyCode",
      "type": "error"
    },
    {
      "inputs": [
        {
          "internalType": "address",
          "name": "account",
          "type": "address"
        }
      ],
      "name": "AddressInsufficientBalance",
      "type": "error"
    },
    {
      "inputs": [],
      "name": "ERC7540CantRequestDepositOnBehalfOf",
      "type": "error"
    },
    {
      "inputs": [],
      "name": "FailedInnerCall",
      "type": "error"
    },
    {
      "inputs": [
        {
          "internalType": "address",
          "name": "controller",
          "type": "address"
        },
        {
          "internalType": "uint256",
          "name": "assets",
          "type": "uint256"
        },
        {
          "internalType": "uint256",
          "name": "maxDeposit",
          "type": "uint256"
        }
      ],
      "name": "MaxDepositRequestExceeded",
      "type": "error"
    },
    {
      "inputs": [
        {
          "internalType": "address",
          "name": "controller",
          "type": "address"
        },
        {
          "internalType": "uint256",
          "name": "shares",
          "type": "uint256"
        },
        {
          "internalType": "uint256",
          "name": "maxShares",
          "type": "uint256"
        }
      ],
      "name": "MaxRedeemRequestExceeded",
      "type": "error"
    },
    {
      "inputs": [],
      "name": "MaxRewardTokensAmount",
      "type": "error"
    },
    {
      "inputs": [
        {
          "internalType": "address",
          "name": "owner",
          "type": "address"
        }
      ],
      "name": "OwnableInvalidOwner",
      "type": "error"
    },
    {
      "inputs": [
        {
          "internalType": "address",
          "name": "account",
          "type": "address"
        }
      ],
      "name": "OwnableUnauthorizedAccount",
      "type": "error"
    },
    {
      "inputs": [],
      "name": "ReentrancyGuardReentrantCall",
      "type": "error"
    },
    {
      "inputs": [
        {
          "internalType": "address",
          "name": "token",
          "type": "address"
        }
      ],
      "name": "SafeERC20FailedOperation",
      "type": "error"
    },
    {
      "anonymous": false,
      "inputs": [
        {
          "indexed": true,
          "internalType": "address",
          "name": "owner",
          "type": "address"
        },
        {
          "indexed": true,
          "internalType": "address",
          "name": "spender",
          "type": "address"
        },
        {
          "indexed": false,
          "internalType": "uint256",
          "name": "amount",
          "type": "uint256"
        }
      ],
      "name": "Approval",
      "type": "event"
    },
    {
      "anonymous": false,
      "inputs": [
        {
          "indexed": true,
          "internalType": "address",
          "name": "owner",
          "type": "address"
        },
        {
          "indexed": true,
          "internalType": "address",
          "name": "operator",
          "type": "address"
        },
        {
          "indexed": false,
          "internalType": "uint256",
          "name": "assets",
          "type": "uint256"
        },
        {
          "indexed": false,
          "internalType": "uint256",
          "name": "shares",
          "type": "uint256"
        }
      ],
      "name": "ClaimDeposit",
      "type": "event"
    },
    {
      "anonymous": false,
      "inputs": [
        {
          "indexed": true,
          "internalType": "address",
          "name": "owner",
          "type": "address"
        },
        {
          "indexed": true,
          "internalType": "address",
          "name": "operator",
          "type": "address"
        },
        {
          "indexed": false,
          "internalType": "uint256",
          "name": "assets",
          "type": "uint256"
        },
        {
          "indexed": false,
          "internalType": "uint256",
          "name": "shares",
          "type": "uint256"
        }
      ],
      "name": "ClaimRedeem",
      "type": "event"
    },
    {
      "anonymous": false,
      "inputs": [
        {
          "indexed": true,
          "internalType": "address",
          "name": "createdToken",
          "type": "address"
        }
      ],
      "name": "CreatedToken",
      "type": "event"
    },
    {
      "anonymous": false,
      "inputs": [
        {
          "indexed": true,
          "internalType": "address",
          "name": "owner",
          "type": "address"
        },
        {
          "indexed": true,
          "internalType": "uint256",
          "name": "previousRequestedAssets",
          "type": "uint256"
        },
        {
          "indexed": false,
          "internalType": "uint256",
          "name": "newRequestedAssets",
          "type": "uint256"
        }
      ],
      "name": "DecreaseDepositRequest",
      "type": "event"
    },
    {
      "anonymous": false,
      "inputs": [
        {
          "indexed": true,
          "internalType": "address",
          "name": "controller",
          "type": "address"
        },
        {
          "indexed": true,
          "internalType": "address",
          "name": "owner",
          "type": "address"
        },
        {
          "indexed": false,
          "internalType": "address",
          "name": "sender",
          "type": "address"
        },
        {
          "indexed": false,
          "internalType": "uint256",
          "name": "assets",
          "type": "uint256"
        }
      ],
      "name": "DepositRequested",
      "type": "event"
    },
    {
      "anonymous": false,
      "inputs": [
        {
          "components": [
            {
              "internalType": "address",
              "name": "receiver",
              "type": "address"
            },
            {
              "internalType": "address",
              "name": "token",
              "type": "address"
            },
            {
              "internalType": "uint256",
              "name": "feePercentage",
              "type": "uint256"
            }
          ],
          "indexed": false,
          "internalType": "struct FeeConfiguration.FeeConfig",
          "name": "feeConfig",
          "type": "tuple"
        }
      ],
      "name": "FeeConfigUpdated",
      "type": "event"
    },
    {
      "anonymous": false,
      "inputs": [
        {
          "indexed": true,
          "internalType": "address",
          "name": "previousOwner",
          "type": "address"
        },
        {
          "indexed": true,
          "internalType": "address",
          "name": "newOwner",
          "type": "address"
        }
      ],
      "name": "OwnershipTransferred",
      "type": "event"
    },
    {
      "anonymous": false,
      "inputs": [
        {
          "indexed": true,
          "internalType": "address",
          "name": "controller",
          "type": "address"
        },
        {
          "indexed": true,
          "internalType": "address",
          "name": "owner",
          "type": "address"
        },
        {
          "indexed": false,
          "internalType": "address",
          "name": "sender",
          "type": "address"
        },
        {
          "indexed": false,
          "internalType": "uint256",
          "name": "shares",
          "type": "uint256"
        }
      ],
      "name": "RedeemRequested",
      "type": "event"
    },
    {
      "anonymous": false,
      "inputs": [
        {
          "indexed": true,
          "internalType": "address",
          "name": "rewardToken",
          "type": "address"
        },
        {
          "indexed": false,
          "internalType": "uint256",
          "name": "amount",
          "type": "uint256"
        }
      ],
      "name": "RewardAdded",
      "type": "event"
    },
    {
      "anonymous": false,
      "inputs": [
        {
          "indexed": true,
          "internalType": "bytes32",
          "name": "role",
          "type": "bytes32"
        },
        {
          "indexed": true,
          "internalType": "bytes32",
          "name": "previousAdminRole",
          "type": "bytes32"
        },
        {
          "indexed": true,
          "internalType": "bytes32",
          "name": "newAdminRole",
          "type": "bytes32"
        }
      ],
      "name": "RoleAdminChanged",
      "type": "event"
    },
    {
      "anonymous": false,
      "inputs": [
        {
          "indexed": true,
          "internalType": "bytes32",
          "name": "role",
          "type": "bytes32"
        },
        {
          "indexed": true,
          "internalType": "address",
          "name": "account",
          "type": "address"
        },
        {
          "indexed": true,
          "internalType": "address",
          "name": "sender",
          "type": "address"
        }
      ],
      "name": "RoleGranted",
      "type": "event"
    },
    {
      "anonymous": false,
      "inputs": [
        {
          "indexed": true,
          "internalType": "bytes32",
          "name": "role",
          "type": "bytes32"
        },
        {
          "indexed": true,
          "internalType": "address",
          "name": "account",
          "type": "address"
        },
        {
          "indexed": true,
          "internalType": "address",
          "name": "sender",
          "type": "address"
        }
      ],
      "name": "RoleRevoked",
      "type": "event"
    },
    {
      "anonymous": false,
      "inputs": [
        {
          "indexed": true,
          "internalType": "address",
          "name": "from",
          "type": "address"
        },
        {
          "indexed": true,
          "internalType": "address",
          "name": "to",
          "type": "address"
        },
        {
          "indexed": false,
          "internalType": "uint256",
          "name": "amount",
          "type": "uint256"
        }
      ],
      "name": "Transfer",
      "type": "event"
    },
    {
      "inputs": [],
      "name": "DEFAULT_ADMIN_ROLE",
      "outputs": [
        {
          "internalType": "bytes32",
          "name": "",
          "type": "bytes32"
        }
      ],
      "stateMutability": "view",
      "type": "function"
    },
    {
      "inputs": [],
      "name": "DOMAIN_SEPARATOR",
      "outputs": [
        {
          "internalType": "bytes32",
          "name": "",
          "type": "bytes32"
        }
      ],
      "stateMutability": "view",
      "type": "function"
    },
    {
      "inputs": [],
      "name": "FEE_CONFIG_CONTROLLER_ROLE",
      "outputs": [
        {
          "internalType": "bytes32",
          "name": "",
          "type": "bytes32"
        }
      ],
      "stateMutability": "view",
      "type": "function"
    },
    {
      "inputs": [],
      "name": "VAULT_REWARD_CONTROLLER_ROLE",
      "outputs": [
        {
          "internalType": "bytes32",
          "name": "",
          "type": "bytes32"
        }
      ],
      "stateMutability": "view",
      "type": "function"
    },
    {
      "inputs": [
        {
          "internalType": "address",
          "name": "_token",
          "type": "address"
        },
        {
          "internalType": "uint256",
          "name": "_amount",
          "type": "uint256"
        }
      ],
      "name": "addReward",
      "outputs": [],
      "stateMutability": "payable",
      "type": "function"
    },
    {
      "inputs": [
        {
          "internalType": "address",
          "name": "",
          "type": "address"
        },
        {
          "internalType": "address",
          "name": "",
          "type": "address"
        }
      ],
      "name": "allowance",
      "outputs": [
        {
          "internalType": "uint256",
          "name": "",
          "type": "uint256"
        }
      ],
      "stateMutability": "view",
      "type": "function"
    },
    {
      "inputs": [
        {
          "internalType": "address",
          "name": "spender",
          "type": "address"
        },
        {
          "internalType": "uint256",
          "name": "amount",
          "type": "uint256"
        }
      ],
      "name": "approve",
      "outputs": [
        {
          "internalType": "bool",
          "name": "",
          "type": "bool"
        }
      ],
      "stateMutability": "nonpayable",
      "type": "function"
    },
    {
      "inputs": [],
      "name": "asset",
      "outputs": [
        {
          "internalType": "address",
          "name": "",
          "type": "address"
        }
      ],
      "stateMutability": "view",
      "type": "function"
    },
    {
      "inputs": [],
      "name": "assetTotalSupply",
      "outputs": [
        {
          "internalType": "uint256",
          "name": "",
          "type": "uint256"
        }
      ],
      "stateMutability": "view",
      "type": "function"
    },
    {
      "inputs": [
        {
          "internalType": "address",
          "name": "",
          "type": "address"
        }
      ],
      "name": "balanceOf",
      "outputs": [
        {
          "internalType": "uint256",
          "name": "",
          "type": "uint256"
        }
      ],
      "stateMutability": "view",
      "type": "function"
    },
    {
      "inputs": [
        {
          "internalType": "uint256",
          "name": "_startPosition",
          "type": "uint256"
        }
      ],
      "name": "claimAllReward",
      "outputs": [
        {
          "internalType": "uint256",
          "name": "",
          "type": "uint256"
        },
        {
          "internalType": "uint256",
          "name": "",
          "type": "uint256"
        }
      ],
      "stateMutability": "payable",
      "type": "function"
    },
    {
      "inputs": [
        {
          "internalType": "address",
          "name": "receiver",
          "type": "address"
        }
      ],
      "name": "claimDeposit",
      "outputs": [
        {
          "internalType": "uint256",
          "name": "shares",
          "type": "uint256"
        }
      ],
      "stateMutability": "nonpayable",
      "type": "function"
    },
    {
      "inputs": [
        {
          "internalType": "address",
          "name": "receiver",
          "type": "address"
        }
      ],
      "name": "claimRedeem",
      "outputs": [
        {
          "internalType": "uint256",
          "name": "assets",
          "type": "uint256"
        }
      ],
      "stateMutability": "nonpayable",
      "type": "function"
    },
    {
      "inputs": [
        {
          "internalType": "address",
          "name": "",
          "type": "address"
        }
      ],
      "name": "claimableDepositBalance",
      "outputs": [
        {
          "internalType": "uint256",
          "name": "",
          "type": "uint256"
        }
      ],
      "stateMutability": "view",
      "type": "function"
    },
    {
      "inputs": [],
      "name": "decimals",
      "outputs": [
        {
          "internalType": "uint8",
          "name": "",
          "type": "uint8"
        }
      ],
      "stateMutability": "view",
      "type": "function"
    },
    {
      "inputs": [
        {
          "internalType": "uint256",
          "name": "assets",
          "type": "uint256"
        }
      ],
      "name": "decreaseDepositRequest",
      "outputs": [],
      "stateMutability": "nonpayable",
      "type": "function"
    },
    {
      "inputs": [
        {
          "internalType": "address",
          "name": "",
          "type": "address"
        }
      ],
      "name": "deposits",
      "outputs": [
        {
          "internalType": "uint256",
          "name": "",
          "type": "uint256"
        }
      ],
      "stateMutability": "view",
      "type": "function"
    },
    {
      "inputs": [],
      "name": "feeConfig",
      "outputs": [
        {
          "internalType": "address",
          "name": "receiver",
          "type": "address"
        },
        {
          "internalType": "address",
          "name": "token",
          "type": "address"
        },
        {
          "internalType": "uint256",
          "name": "feePercentage",
          "type": "uint256"
        }
      ],
      "stateMutability": "view",
      "type": "function"
    },
    {
      "inputs": [],
      "name": "getRewardTokens",
      "outputs": [
        {
          "internalType": "address[]",
          "name": "",
          "type": "address[]"
        }
      ],
      "stateMutability": "view",
      "type": "function"
    },
    {
      "inputs": [
        {
          "internalType": "bytes32",
          "name": "role",
          "type": "bytes32"
        }
      ],
      "name": "getRoleAdmin",
      "outputs": [
        {
          "internalType": "bytes32",
          "name": "",
          "type": "bytes32"
        }
      ],
      "stateMutability": "view",
      "type": "function"
    },
    {
      "inputs": [
        {
          "internalType": "address",
          "name": "_user",
          "type": "address"
        },
        {
          "internalType": "address",
          "name": "_rewardToken",
          "type": "address"
        }
      ],
      "name": "getUserReward",
      "outputs": [
        {
          "internalType": "uint256",
          "name": "unclaimedAmount",
          "type": "uint256"
        }
      ],
      "stateMutability": "view",
      "type": "function"
    },
    {
      "inputs": [
        {
          "internalType": "bytes32",
          "name": "role",
          "type": "bytes32"
        },
        {
          "internalType": "address",
          "name": "account",
          "type": "address"
        }
      ],
      "name": "grantRole",
      "outputs": [],
      "stateMutability": "nonpayable",
      "type": "function"
    },
    {
      "inputs": [
        {
          "internalType": "bytes32",
          "name": "role",
          "type": "bytes32"
        },
        {
          "internalType": "address",
          "name": "account",
          "type": "address"
        }
      ],
      "name": "hasRole",
      "outputs": [
        {
          "internalType": "bool",
          "name": "",
          "type": "bool"
        }
      ],
      "stateMutability": "view",
      "type": "function"
    },
    {
      "inputs": [
        {
          "internalType": "address",
          "name": "",
          "type": "address"
        }
      ],
      "name": "maxDepositRequest",
      "outputs": [
        {
          "internalType": "uint256",
          "name": "",
          "type": "uint256"
        }
      ],
      "stateMutability": "pure",
      "type": "function"
    },
    {
      "inputs": [
        {
          "internalType": "address",
          "name": "owner",
          "type": "address"
        }
      ],
      "name": "maxRedeemRequest",
      "outputs": [
        {
          "internalType": "uint256",
          "name": "",
          "type": "uint256"
        }
      ],
      "stateMutability": "view",
      "type": "function"
    },
    {
      "inputs": [],
      "name": "name",
      "outputs": [
        {
          "internalType": "string",
          "name": "",
          "type": "string"
        }
      ],
      "stateMutability": "view",
      "type": "function"
    },
    {
      "inputs": [],
      "name": "nextDepositRequestId",
      "outputs": [
        {
          "internalType": "uint256",
          "name": "",
          "type": "uint256"
        }
      ],
      "stateMutability": "view",
      "type": "function"
    },
    {
      "inputs": [],
      "name": "nextRedeemRequestId",
      "outputs": [
        {
          "internalType": "uint256",
          "name": "",
          "type": "uint256"
        }
      ],
      "stateMutability": "view",
      "type": "function"
    },
    {
      "inputs": [
        {
          "internalType": "address",
          "name": "",
          "type": "address"
        }
      ],
      "name": "nonces",
      "outputs": [
        {
          "internalType": "uint256",
          "name": "",
          "type": "uint256"
        }
      ],
      "stateMutability": "view",
      "type": "function"
    },
    {
      "inputs": [],
      "name": "owner",
      "outputs": [
        {
          "internalType": "address",
          "name": "",
          "type": "address"
        }
      ],
      "stateMutability": "view",
      "type": "function"
    },
    {
      "inputs": [
        {
          "internalType": "address",
          "name": "",
          "type": "address"
        }
      ],
      "name": "pendingDepositBalance",
      "outputs": [
        {
          "internalType": "uint256",
          "name": "",
          "type": "uint256"
        }
      ],
      "stateMutability": "view",
      "type": "function"
    },
    {
      "inputs": [
        {
          "internalType": "address",
          "name": "owner",
          "type": "address"
        }
      ],
      "name": "pendingDepositRequest",
      "outputs": [
        {
          "internalType": "uint256",
          "name": "assets",
          "type": "uint256"
        }
      ],
      "stateMutability": "view",
      "type": "function"
    },
    {
      "inputs": [
        {
          "internalType": "address",
          "name": "owner",
          "type": "address"
        }
      ],
      "name": "pendingRedeemRequest",
      "outputs": [
        {
          "internalType": "uint256",
          "name": "shares",
          "type": "uint256"
        }
      ],
      "stateMutability": "view",
      "type": "function"
    },
    {
      "inputs": [
        {
          "internalType": "address",
          "name": "owner",
          "type": "address"
        },
        {
          "internalType": "address",
          "name": "spender",
          "type": "address"
        },
        {
          "internalType": "uint256",
          "name": "value",
          "type": "uint256"
        },
        {
          "internalType": "uint256",
          "name": "deadline",
          "type": "uint256"
        },
        {
          "internalType": "uint8",
          "name": "v",
          "type": "uint8"
        },
        {
          "internalType": "bytes32",
          "name": "r",
          "type": "bytes32"
        },
        {
          "internalType": "bytes32",
          "name": "s",
          "type": "bytes32"
        }
      ],
      "name": "permit",
      "outputs": [],
      "stateMutability": "nonpayable",
      "type": "function"
    },
    {
      "inputs": [
        {
          "internalType": "address",
          "name": "owner",
          "type": "address"
        }
      ],
      "name": "previewClaimDeposit",
      "outputs": [
        {
          "internalType": "uint256",
          "name": "",
          "type": "uint256"
        }
      ],
      "stateMutability": "view",
      "type": "function"
    },
    {
      "inputs": [
        {
          "internalType": "address",
          "name": "owner",
          "type": "address"
        }
      ],
      "name": "previewClaimRedeem",
      "outputs": [
        {
          "internalType": "uint256",
          "name": "",
          "type": "uint256"
        }
      ],
      "stateMutability": "view",
      "type": "function"
    },
    {
      "inputs": [
        {
          "internalType": "address",
          "name": "",
          "type": "address"
        }
      ],
      "name": "redeems",
      "outputs": [
        {
          "internalType": "uint256",
          "name": "",
          "type": "uint256"
        }
      ],
      "stateMutability": "view",
      "type": "function"
    },
    {
      "inputs": [],
      "name": "renounceOwnership",
      "outputs": [],
      "stateMutability": "nonpayable",
      "type": "function"
    },
    {
      "inputs": [
        {
          "internalType": "bytes32",
          "name": "role",
          "type": "bytes32"
        },
        {
          "internalType": "address",
          "name": "callerConfirmation",
          "type": "address"
        }
      ],
      "name": "renounceRole",
      "outputs": [],
      "stateMutability": "nonpayable",
      "type": "function"
    },
    {
      "inputs": [
        {
          "internalType": "uint256",
          "name": "assets",
          "type": "uint256"
        },
        {
          "internalType": "address",
          "name": "operator",
          "type": "address"
        },
        {
          "internalType": "address",
          "name": "owner",
          "type": "address"
        }
      ],
      "name": "requestDeposit",
      "outputs": [],
      "stateMutability": "nonpayable",
      "type": "function"
    },
    {
      "inputs": [
        {
          "internalType": "uint256",
          "name": "shares",
          "type": "uint256"
        },
        {
          "internalType": "address",
          "name": "operator",
          "type": "address"
        },
        {
          "internalType": "address",
          "name": "owner",
          "type": "address"
        }
      ],
      "name": "requestRedeem",
      "outputs": [],
      "stateMutability": "nonpayable",
      "type": "function"
    },
    {
      "inputs": [
        {
          "internalType": "bytes32",
          "name": "role",
          "type": "bytes32"
        },
        {
          "internalType": "address",
          "name": "account",
          "type": "address"
        }
      ],
      "name": "revokeRole",
      "outputs": [],
      "stateMutability": "nonpayable",
      "type": "function"
    },
    {
      "inputs": [
        {
          "internalType": "uint256",
          "name": "",
          "type": "uint256"
        }
      ],
      "name": "rewardTokens",
      "outputs": [
        {
          "internalType": "address",
          "name": "",
          "type": "address"
        }
      ],
      "stateMutability": "view",
      "type": "function"
    },
    {
      "inputs": [],
      "name": "share",
      "outputs": [
        {
          "internalType": "address",
          "name": "",
          "type": "address"
        }
      ],
      "stateMutability": "view",
      "type": "function"
    },
    {
      "inputs": [
        {
          "internalType": "bytes4",
          "name": "interfaceId",
          "type": "bytes4"
        }
      ],
      "name": "supportsInterface",
      "outputs": [
        {
          "internalType": "bool",
          "name": "",
          "type": "bool"
        }
      ],
      "stateMutability": "view",
      "type": "function"
    },
    {
      "inputs": [],
      "name": "symbol",
      "outputs": [
        {
          "internalType": "string",
          "name": "",
          "type": "string"
        }
      ],
      "stateMutability": "view",
      "type": "function"
    },
    {
      "inputs": [
        {
          "internalType": "address",
          "name": "",
          "type": "address"
        }
      ],
      "name": "tokensRewardInfo",
      "outputs": [
        {
          "internalType": "uint256",
          "name": "amount",
          "type": "uint256"
        },
        {
          "internalType": "bool",
          "name": "exist",
          "type": "bool"
        }
      ],
      "stateMutability": "view",
      "type": "function"
    },
    {
      "inputs": [],
      "name": "totalAssets",
      "outputs": [
        {
          "internalType": "uint256",
          "name": "",
          "type": "uint256"
        }
      ],
      "stateMutability": "view",
      "type": "function"
    },
    {
      "inputs": [],
      "name": "totalSupply",
      "outputs": [
        {
          "internalType": "uint256",
          "name": "",
          "type": "uint256"
        }
      ],
      "stateMutability": "view",
      "type": "function"
    },
    {
      "inputs": [
        {
          "internalType": "address",
          "name": "to",
          "type": "address"
        },
        {
          "internalType": "uint256",
          "name": "amount",
          "type": "uint256"
        }
      ],
      "name": "transfer",
      "outputs": [
        {
          "internalType": "bool",
          "name": "",
          "type": "bool"
        }
      ],
      "stateMutability": "nonpayable",
      "type": "function"
    },
    {
      "inputs": [
        {
          "internalType": "address",
          "name": "from",
          "type": "address"
        },
        {
          "internalType": "address",
          "name": "to",
          "type": "address"
        },
        {
          "internalType": "uint256",
          "name": "amount",
          "type": "uint256"
        }
      ],
      "name": "transferFrom",
      "outputs": [
        {
          "internalType": "bool",
          "name": "",
          "type": "bool"
        }
      ],
      "stateMutability": "nonpayable",
      "type": "function"
    },
    {
      "inputs": [
        {
          "internalType": "address",
          "name": "newOwner",
          "type": "address"
        }
      ],
      "name": "transferOwnership",
      "outputs": [],
      "stateMutability": "nonpayable",
      "type": "function"
    },
    {
      "inputs": [
        {
          "components": [
            {
              "internalType": "address",
              "name": "receiver",
              "type": "address"
            },
            {
              "internalType": "address",
              "name": "token",
              "type": "address"
            },
            {
              "internalType": "uint256",
              "name": "feePercentage",
              "type": "uint256"
            }
          ],
          "internalType": "struct FeeConfiguration.FeeConfig",
          "name": "_feeConfig",
          "type": "tuple"
        }
      ],
      "name": "updateFeeConfig",
      "outputs": [],
      "stateMutability": "nonpayable",
      "type": "function"
    },
    {
      "inputs": [
        {
          "internalType": "address",
          "name": "",
          "type": "address"
        }
      ],
      "name": "userContribution",
      "outputs": [
        {
          "internalType": "uint256",
          "name": "sharesAmount",
          "type": "uint256"
        },
        {
          "internalType": "bool",
          "name": "exist",
          "type": "bool"
        }
      ],
      "stateMutability": "view",
      "type": "function"
    }
  ],
  "bytecode": "0x610100604052604051620044ec380380620044ec833981016040819052620000279162000b14565b338585886001600160a01b031663313ce5676040518163ffffffff1660e01b8152600401602060405180830381865afa15801562000069573d6000803e3d6000fd5b505050506040513d601f19601f820116820180604052508101906200008f919062000c0d565b60006200009d848262000cca565b506001620000ac838262000cca565b5060ff81166080524660a052620000c262000146565b60c05250506001600a55506001600160a01b038116620000fd57604051631e4fbdf760e01b8152600060048201526024015b60405180910390fd5b6200010881620001e2565b506200011683838362000234565b6001600160a01b03861660e052600160158190556016556200013a858588620002ba565b505050505050620010e1565b60007f8b73c3c69bb8fe3d512ecc4cf759cc79239f7b179b0ffacaa9a75d522b39400f60006040516200017a919062000d96565b6040805191829003822060208301939093528101919091527fc89efdaa54c0f20c7adf612882df0950f5a951637e0307cdcb4c672f298b8bc660608201524660808201523060a082015260c00160405160208183030381529060405280519060200120905090565b600b80546001600160a01b038381166001600160a01b0319831681179093556040519116919082907f8be0079c531659141344cd1fd0a4f28419497f9722a3daafe3b4186f6b6457e090600090a35050565b8251602084015160408501516200024d9291906200055d565b6200025a6000336200061d565b50620002877f477fc23fb51bb5d5aa814872a393b0e4f35d0916c7503c0fd96584681070d410836200061d565b50620002b47f74e458455daa935f28c556b43e0cc4ad001a8a090f5feee376681e97d4618f46826200061d565b50505050565b620002c68130620006d0565b6040805160a08082018352600080835260208084018290526060848601819052808501819052306080808701829052875195860188528486528584018590528588018390528583018390528501528551600280825291810190965260109560019594939290919082015b6200033a62000993565b81526020019060019003908162000330579050509050604051806040016040528086815260200184815250816000815181106200037b576200037b62000e14565b602002602001018190525060405180604001604052808581526020018381525081600181518110620003b157620003b162000e14565b6020026020010181905250620003f66040518060600160405280600063ffffffff16815260200160006001600160a01b03168152602001600063ffffffff1681525090565b306020820152627a120060408201526200046c60408051610120810182526060808252602080830182905260008385018190528284018390526080840181905260a0840181905260c0840181905260e0840183905284519283018552808352908201819052928101929092529061010082015290565b89815260208082018a905230604080840191909152610100830184905260e08301859052805163313ce56760e01b81529051620005099284926000926001600160a01b038e169263313ce56792600480820193918290030181865afa158015620004da573d6000803e3d6000fd5b505050506040513d601f19601f8201168201806040525081019062000500919062000c0d565b60ff16620007ff565b600c80546001600160a01b0319166001600160a01b039290921691821790556040517f7bb17726df1f3adee8aa00ba8e8bc5d6f182af3bbf77604639cb7f008dd3b4ed90600090a250505050505050505050565b6127108110620005a25760405162461bcd60e51b815260206004820152600f60248201526e46433a20496e76616c69642066656560881b6044820152606401620000f4565b600780546001600160a01b038581166001600160a01b0319928316811790935560088054918616919092168117909155600983905560408051928352602083019190915281018290527febd34b2df88ea5c9f67c04b13b08e5e63c2d17e269aab73b866fe47a8736a2649060600160405180910390a1505050565b60008281526006602090815260408083206001600160a01b038516845290915281205460ff16620006c65760008381526006602090815260408083206001600160a01b03861684529091529020805460ff191660011790556200067d3390565b6001600160a01b0316826001600160a01b0316847f2f8788117e7eff1d82e926ec794901d17c78024a50270940304540a733656f0d60405160405180910390a4506001620006ca565b5060005b92915050565b604080516001600160a01b038381166024830152841660448083019190915282518083039091018152606490910182526020810180516001600160e01b031663248a35ef60e11b1790529051600091829182916101679162000733919062000e2a565b6000604051808303816000865af19150503d806000811462000772576040519150601f19603f3d011682016040523d82523d6000602084013e62000777565b606091505b5091509150816200078a576015620007a0565b80806020019051810190620007a0919062000e5b565b9250600383900b601614620007f85760405162461bcd60e51b815260206004820152601f60248201527f536166652073696e676c65206173736f63696174696f6e206661696c656421006044820152606401620000f4565b5050505050565b61010083015151600090849063ffffffff161580156200082c57506101008101516040015163ffffffff16155b1562000843576101008101516276a7006040909101525b60008060006101676001600160a01b031634637812a04b60e01b8a8a8a604051602401620008749392919062000f78565b60408051601f198184030181529181526020820180516001600160e01b03166001600160e01b0319909416939093179092529051620008b4919062000e2a565b60006040518083038185875af1925050503d8060008114620008f3576040519150601f19603f3d011682016040523d82523d6000602084013e620008f8565b606091505b5091509150816200090d576015600062000923565b80806020019051810190620009239190620010a5565b95509250600383900b601614620009885760405162461bcd60e51b815260206004820152602260248201527f53616665206372656174652066756e6769626c6520746f6b656e206661696c65604482015261642160f01b6064820152608401620000f4565b505050509392505050565b604051806040016040528060008152602001620009ec6040518060a0016040528060001515815260200160006001600160a01b03168152602001606081526020016060815260200160006001600160a01b031681525090565b905290565b6001600160a01b038116811462000a0757600080fd5b50565b634e487b7160e01b600052604160045260246000fd5b604051606081016001600160401b038111828210171562000a455762000a4562000a0a565b60405290565b60005b8381101562000a6857818101518382015260200162000a4e565b50506000910152565b600082601f83011262000a8357600080fd5b81516001600160401b038082111562000aa05762000aa062000a0a565b604051601f8301601f19908116603f0116810190828211818310171562000acb5762000acb62000a0a565b8160405283815286602085880101111562000ae557600080fd5b62000af884602083016020890162000a4b565b9695505050505050565b805162000b0f81620009f1565b919050565b60008060008060008086880361010081121562000b3057600080fd5b875162000b3d81620009f1565b60208901519097506001600160401b038082111562000b5b57600080fd5b62000b698b838c0162000a71565b975060408a015191508082111562000b8057600080fd5b5062000b8f8a828b0162000a71565b9550506060605f198201121562000ba557600080fd5b5062000bb062000a20565b606088015162000bc081620009f1565b8152608088015162000bd281620009f1565b602082015260a08801516040820152925062000bf160c0880162000b02565b915062000c0160e0880162000b02565b90509295509295509295565b60006020828403121562000c2057600080fd5b815160ff8116811462000c3257600080fd5b9392505050565b600181811c9082168062000c4e57607f821691505b60208210810362000c6f57634e487b7160e01b600052602260045260246000fd5b50919050565b601f82111562000cc5576000816000526020600020601f850160051c8101602086101562000ca05750805b601f850160051c820191505b8181101562000cc15782815560010162000cac565b5050505b505050565b81516001600160401b0381111562000ce65762000ce662000a0a565b62000cfe8162000cf7845462000c39565b8462000c75565b602080601f83116001811462000d36576000841562000d1d5750858301515b600019600386901b1c1916600185901b17855562000cc1565b600085815260208120601f198616915b8281101562000d675788860151825594840194600190910190840162000d46565b508582101562000d865787850151600019600388901b60f8161c191681555b5050505050600190811b01905550565b600080835462000da68162000c39565b6001828116801562000dc1576001811462000dd75762000e08565b60ff198416875282151583028701945062000e08565b8760005260208060002060005b8581101562000dff5781548a82015290840190820162000de4565b50505082870194505b50929695505050505050565b634e487b7160e01b600052603260045260246000fd5b6000825162000e3e81846020870162000a4b565b9190910192915050565b8051600381900b811462000b0f57600080fd5b60006020828403121562000e6e57600080fd5b62000c328262000e48565b6000815180845262000e9381602086016020860162000a4b565b601f01601f19169290920160200192915050565b600082825180855260208086019550808260051b84010181860160005b8481101562000f6b57858303601f1901895281518051845284015160408585018190528151151581860152818601516001600160a01b039081166060808801919091529183015160a0608080890182905291939092909162000f2a60e08a018662000e79565b92860151898403603f1901858b015292945062000f48858462000e79565b9501511660c0979097019690965250509884019892509083019060010162000ec4565b5090979650505050505050565b606081526000845161016080606085015262000f996101c085018362000e79565b91506020870151605f198086850301608087015262000fb9848362000e79565b93506040890151915062000fd860a08701836001600160a01b03169052565b60608901519150808685030160c087015262000ff5848362000e79565b9350608089015191506200100d60e087018315159052565b60a08901519150610100620010298188018463ffffffff169052565b60c08a0151151561012088015260e08a01518786038301610140890152925062001054858462000ea7565b9450808a0151925050506200109182860182805163ffffffff90811683526020808301516001600160a01b03169084015260409182015116910152565b505060208301949094525060400152919050565b60008060408385031215620010b957600080fd5b620010c48362000e48565b91506020830151620010d681620009f1565b809150509250929050565b60805160a05160c05160e0516133ae6200113e6000396000818161058c01528181610af4015281816112b3015281816113e101528181611af60152611c8301526000610e1c01526000610dec0152600061051401526133ae6000f3fe6080604052600436106102d55760003560e01c80637ecebe001161017b578063c4f59f9b116100d7578063dd62ed3e11610085578063dd62ed3e146109df578063de56603c14610a17578063e842cb4214610a37578063efa6f42514610a57578063f2fde38b14610a77578063fc7e286d14610a97578063fddca04114610ac457600080fd5b8063c4f59f9b146108d9578063cd9cdfda146108fb578063d3181f5a14610932578063d505accf14610952578063d547741f14610972578063d6543a5814610992578063db6b2074146109bf57600080fd5b80639930f7c8116101345780639930f7c8146107dc5780639feb8f5014610809578063a217fddf1461081c578063a8d5fd6514610831578063a9059cbb1461084f578063b4f6d6131461086f578063c3702989146108a357600080fd5b80637ecebe001461072657806385b77f45146107535780638da5cb5b146107735780638f12c2f41461079157806391d14854146107a757806395d89b41146107c757600080fd5b8063313ce5671161023557806353f22867116101e357806353f228671461063c5780635ab764ed1461065c57806370a082311461067c578063715018a6146106a95780637a07bf3a146106be5780637bb7bed1146106e65780637d41c86e1461070657600080fd5b8063313ce567146105025780633644e5151461054857806336568abe1461055d57806338d52e0f1461057d57806344b05fa2146105b9578063511ffbff146105d957806353dc1dd31461060657600080fd5b80631587a90c116102925780631587a90c146103c857806316ad0672146103de57806318160ddd1461042a5780631e5eb1d01461043f57806323b872dd14610490578063248a9ca3146104b05780632f2ff15d146104e057600080fd5b806301e1d114146102da57806301ffc9a71461030257806305fb2a511461033257806306fdde0314610366578063095ea7b3146103885780630c5cb572146103a8575b600080fd5b3480156102e657600080fd5b506102ef610ada565b6040519081526020015b60405180910390f35b34801561030e57600080fd5b5061032261031d366004612bd5565b610b6f565b60405190151581526020016102f9565b34801561033e57600080fd5b506102ef7f74e458455daa935f28c556b43e0cc4ad001a8a090f5feee376681e97d4618f4681565b34801561037257600080fd5b5061037b610ba6565b6040516102f99190612c4f565b34801561039457600080fd5b506103226103a3366004612c7e565b610c34565b3480156103b457600080fd5b506102ef6103c3366004612ca8565b610ca0565b3480156103d457600080fd5b506102ef60155481565b3480156103ea57600080fd5b506104156103f9366004612ca8565b6013602052600090815260409020805460029091015460ff1682565b604080519283529015156020830152016102f9565b34801561043657600080fd5b506002546102ef565b34801561044b57600080fd5b5060075460085460095461046a926001600160a01b0390811692169083565b604080516001600160a01b039485168152939092166020840152908201526060016102f9565b34801561049c57600080fd5b506103226104ab366004612cc3565b610cdb565b3480156104bc57600080fd5b506102ef6104cb366004612cff565b60009081526006602052604090206001015490565b3480156104ec57600080fd5b506105006104fb366004612d18565b610dbd565b005b34801561050e57600080fd5b506105367f000000000000000000000000000000000000000000000000000000000000000081565b60405160ff90911681526020016102f9565b34801561055457600080fd5b506102ef610de8565b34801561056957600080fd5b50610500610578366004612d18565b610e3e565b34801561058957600080fd5b507f00000000000000000000000000000000000000000000000000000000000000005b6040516102f99190612d44565b3480156105c557600080fd5b506102ef6105d4366004612ca8565b610e76565b3480156105e557600080fd5b506102ef6105f4366004612ca8565b60126020526000908152604090205481565b34801561061257600080fd5b506102ef610621366004612ca8565b6001600160a01b031660009081526012602052604090205490565b34801561064857600080fd5b506102ef610657366004612ca8565b610e98565b34801561066857600080fd5b506102ef610677366004612d58565b610e9f565b34801561068857600080fd5b506102ef610697366004612ca8565b60036020526000908152604090205481565b3480156106b557600080fd5b50610500610f30565b6106d16106cc366004612cff565b610f44565b604080519283526020830191909152016102f9565b3480156106f257600080fd5b506105ac610701366004612cff565b61109f565b34801561071257600080fd5b50610500610721366004612d82565b6110c9565b34801561073257600080fd5b506102ef610741366004612ca8565b60056020526000908152604090205481565b34801561075f57600080fd5b5061050061076e366004612d82565b6111af565b34801561077f57600080fd5b50600b546001600160a01b03166105ac565b34801561079d57600080fd5b506102ef600d5481565b3480156107b357600080fd5b506103226107c2366004612d18565b6112db565b3480156107d357600080fd5b5061037b611306565b3480156107e857600080fd5b506102ef6107f7366004612ca8565b600f6020526000908152604090205481565b610500610817366004612c7e565b611313565b34801561082857600080fd5b506102ef600081565b34801561083d57600080fd5b50600c546001600160a01b03166105ac565b34801561085b57600080fd5b5061032261086a366004612c7e565b61167b565b34801561087b57600080fd5b506102ef7f477fc23fb51bb5d5aa814872a393b0e4f35d0916c7503c0fd96584681070d41081565b3480156108af57600080fd5b506102ef6108be366004612ca8565b6001600160a01b031660009081526011602052604090205490565b3480156108e557600080fd5b506108ee6116e1565b6040516102f99190612dbe565b34801561090757600080fd5b50610415610916366004612ca8565b6014602052600090815260409020805460019091015460ff1682565b34801561093e57600080fd5b506102ef61094d366004612ca8565b611743565b34801561095e57600080fd5b5061050061096d366004612e0b565b611765565b34801561097e57600080fd5b5061050061098d366004612d18565b6119a3565b34801561099e57600080fd5b506102ef6109ad366004612ca8565b60106020526000908152604090205481565b3480156109cb57600080fd5b506102ef6109da366004612ca8565b6119c8565b3480156109eb57600080fd5b506102ef6109fa366004612d58565b600460209081526000928352604080842090915290825290205481565b348015610a2357600080fd5b506102ef610a32366004612ca8565b6119e3565b348015610a4357600080fd5b50610500610a52366004612cff565b611a15565b348015610a6357600080fd5b50610500610a72366004612ec5565b611b6e565b348015610a8357600080fd5b50610500610a92366004612ca8565b611bb3565b348015610aa357600080fd5b506102ef610ab2366004612ca8565b60116020526000908152604090205481565b348015610ad057600080fd5b506102ef60165481565b6040516370a0823160e01b81526000906001600160a01b037f000000000000000000000000000000000000000000000000000000000000000016906370a0823190610b29903090600401612d44565b602060405180830381865afa158015610b46573d6000803e3d6000fd5b505050506040513d601f19601f82011682018060405250810190610b6a9190612f2d565b905090565b60006001600160e01b03198216637965db0b60e01b1480610ba057506301ffc9a760e01b6001600160e01b03198316145b92915050565b60008054610bb390612f46565b80601f0160208091040260200160405190810160405280929190818152602001828054610bdf90612f46565b8015610c2c5780601f10610c0157610100808354040283529160200191610c2c565b820191906000526020600020905b815481529060010190602001808311610c0f57829003601f168201915b505050505081565b3360008181526004602090815260408083206001600160a01b038716808552925280832085905551919290917f8c5be1e5ebec7d5bd14f71427d1e84f3dd0314c0f7b2291e5b200ac8c7c3b92590610c8f9086815260200190565b60405180910390a350600192915050565b60006001600160a01b038216610cd15760405162461bcd60e51b8152600401610cc890612f80565b60405180910390fd5b610ba03383611bf1565b6001600160a01b03831660009081526004602090815260408083203384529091528120546000198114610d3757610d128382612fda565b6001600160a01b03861660009081526004602090815260408083203384529091529020555b6001600160a01b03851660009081526003602052604081208054859290610d5f908490612fda565b90915550506001600160a01b038085166000818152600360205260409081902080548701905551909187169060008051602061335983398151915290610da89087815260200190565b60405180910390a360019150505b9392505050565b600082815260066020526040902060010154610dd881611d07565b610de28383611d11565b50505050565b60007f00000000000000000000000000000000000000000000000000000000000000004614610e1957610b6a611da5565b507f000000000000000000000000000000000000000000000000000000000000000090565b6001600160a01b0381163314610e675760405163334bd91960e11b815260040160405180910390fd5b610e718282611e3f565b505050565b6001600160a01b038116600090815260116020526040812054610ba090611eac565b5060001990565b6001600160a01b03808216600081815260146020908152604080832080549588168452601383528184208054958552600181019093529083205492949093909285610eea8286612fda565b9050610ef881600185611edc565b60095490975015610f24576000610f1488600760020154611efa565b9050610f208189612fda565b9750505b50505050505092915050565b610f38611f7a565b610f426000611fa7565b565b600e5460085460009182916001600160a01b0316818303610fb25760405162461bcd60e51b815260206004820152602260248201527f4173796e635661756c743a204e6f2072657761726420746f6b656e73206578696044820152611cdd60f21b6064820152608401610cc8565b845b8281101561109457600080600e8381548110610fd257610fd2612fed565b600091825260208083209091015433835260138252604080842080546001600160a01b03909316808652600191820185528286205460149095529190942054909450611029939261102291612fda565b9190611edc565b6001600160a01b0382166000818152601460209081526040808320543380855260138452828520958552600190950190925290912055909250611070908290309085611ff9565b6001600160a01b0384161561108a5761108882612132565b505b5050600101610fb4565b509394909350915050565b600e81815481106110af57600080fd5b6000918252602090912001546001600160a01b0316905081565b826000036111195760405162461bcd60e51b815260206004820181905260248201527f4173796e635661756c743a20496e76616c696420736861726520616d6f756e746044820152606401610cc8565b6001600160a01b0382161580159061113957506001600160a01b03811615155b6111555760405162461bcd60e51b8152600401610cc890613003565b61115e816119c8565b83111561118c578183611170836119c8565b60405163f046f30360e01b8152600401610cc893929190613044565b600c546111a4906001600160a01b0316333086611ff9565b610e7183838361223c565b826000036111ff5760405162461bcd60e51b815260206004820181905260248201527f4173796e635661756c743a20496e76616c696420617373657420616d6f756e746044820152606401610cc8565b6001600160a01b0382161580159061121f57506001600160a01b03811615155b61123b5760405162461bcd60e51b8152600401610cc890613003565b336001600160a01b03821614611264576040516303c4f5db60e01b815260040160405180910390fd5b61126d81610e98565b83111561129b57818361127f83610e98565b6040516356f1421360e01b8152600401610cc893929190613044565b6112a68383836122b1565b610e716001600160a01b037f00000000000000000000000000000000000000000000000000000000000000001633308661234a565b60009182526006602090815260408084206001600160a01b0393909316845291905290205460ff1690565b60018054610bb390612f46565b7f477fc23fb51bb5d5aa814872a393b0e4f35d0916c7503c0fd96584681070d41061133d81611d07565b8160000361138d5760405162461bcd60e51b815260206004820181905260248201527f4173796e635661756c743a20416d6f756e742063616e2774206265207a65726f6044820152606401610cc8565b600d546000036113df5760405162461bcd60e51b815260206004820152601f60248201527f4173796e635661756c743a204e6f20746f6b656e207374616b656420796574006044820152606401610cc8565b7f00000000000000000000000000000000000000000000000000000000000000006001600160a01b0316836001600160a01b03161415801561142f5750600c546001600160a01b03848116911614155b6114985760405162461bcd60e51b815260206004820152603460248201527f4173796e635661756c743a2052657761726420616e64205374616b696e6720746044820152736f6b656e732063616e6e6f742062652073616d6560601b6064820152608401610cc8565b6001600160a01b0383166114ee5760405162461bcd60e51b815260206004820181905260248201527f4173796e635661756c743a20496e76616c69642072657761726420746f6b656e6044820152606401610cc8565b600e54600a0361151157604051637561e0ab60e01b815260040160405180910390fd5b600061154561151f60025490565b61152a906001613065565b611532610ada565b61153d906001613065565b859190611edc565b6001600160a01b038516600090815260146020526040902060018101549192509060ff166115ee57600e8054600180820183556000929092527fbb7b4a454dc3493923482f07822329ed19e8244eff582cc204f8554c3620c3fd0180546001600160a01b0319166001600160a01b038816179055818101805460ff191690911790558181556115d485306123d4565b6115e96001600160a01b03861633308761234a565b611631565b6001600160a01b03851660009081526014602052604081208054849290611616908490613065565b9091555061163190506001600160a01b03861633308761234a565b846001600160a01b03167fac24935fd910bc682b5ccb1a07b718cadf8cf2f6d1404c4f3ddc3662dae40e298560405161166c91815260200190565b60405180910390a25050505050565b3360009081526003602052604081208054839190839061169c908490612fda565b90915550506001600160a01b0383166000818152600360205260409081902080548501905551339060008051602061335983398151915290610c8f9086815260200190565b6060600e80548060200260200160405190810160405280929190818152602001828054801561173957602002820191906000526020600020905b81546001600160a01b0316815260019091019060200180831161171b575b5050505050905090565b6001600160a01b038116600090815260126020526040812054610ba0906124f2565b428410156117af5760405162461bcd60e51b815260206004820152601760248201527614115493525517d11150511312539157d1561412549151604a1b6044820152606401610cc8565b600060016117bb610de8565b6001600160a01b038a811660008181526005602090815260409182902080546001810190915582517f6e71edae12b1b97f4d1f60370fef10105fa2faae0126114a169c64845d6126c98184015280840194909452938d166060840152608083018c905260a083019390935260c08083018b90528151808403909101815260e08301909152805192019190912061190160f01b6101008301526101028201929092526101228101919091526101420160408051601f198184030181528282528051602091820120600084529083018083525260ff871690820152606081018590526080810184905260a0016020604051602081039080840390855afa1580156118c7573d6000803e3d6000fd5b5050604051601f1901519150506001600160a01b038116158015906118fd5750876001600160a01b0316816001600160a01b0316145b61193a5760405162461bcd60e51b815260206004820152600e60248201526d24a72b20a624a22fa9a4a3a722a960911b6044820152606401610cc8565b6001600160a01b0390811660009081526004602090815260408083208a8516808552908352928190208990555188815291928a16917f8c5be1e5ebec7d5bd14f71427d1e84f3dd0314c0f7b2291e5b200ac8c7c3b925910160405180910390a350505050505050565b6000828152600660205260409020600101546119be81611d07565b610de28383611e3f565b6001600160a01b031660009081526003602052604090205490565b60006001600160a01b038216611a0b5760405162461bcd60e51b8152600401610cc890612f80565b610ba03383612512565b33600090815260116020526040902054808211801590611a3457508115155b611aa05760405162461bcd60e51b815260206004820152603760248201527f4173796e635661756c743a20496e76616c696420616d6f756e7420746f20646560448201527618dc99585cd9481c995c5d595cdd195908185b5bdd5b9d604a1b6064820152608401610cc8565b3360009081526011602052604081208054849290611abf908490612fda565b9091555050336000908152600f602052604081208054849290611ae3908490612fda565b90915550611b1d90506001600160a01b037f0000000000000000000000000000000000000000000000000000000000000000163384612629565b33600081815260116020526040908190205490518392917f9f88fba26e4fc589b3520ec4695e8e53c4ab8e91fcdc72acf6db374ac7b129bc91611b6291815260200190565b60405180910390a35050565b7f74e458455daa935f28c556b43e0cc4ad001a8a090f5feee376681e97d4618f46611b9881611d07565b611baf8260000151836020015184604001516126a1565b5050565b611bbb611f7a565b6001600160a01b038116611be5576000604051631e4fbdf760e01b8152600401610cc89190612d44565b611bee81611fa7565b50565b6001600160a01b038216600090815260126020526040812054611c1384611743565b6001600160a01b03851660009081526012602090815260408083208390556013909152812080549294508392909190611c4d908490612fda565b9250508190555081600d6000828254611c669190612fda565b90915550611c769050308261275f565b611caa6001600160a01b037f0000000000000000000000000000000000000000000000000000000000000000168584612629565b826001600160a01b0316846001600160a01b03167f30b8067c48be106578d6045aba0f65aadc34d168940f701c445a2541fb4bd8a28484604051611cf8929190918252602082015260400190565b60405180910390a35092915050565b611bee81336127c1565b6000611d1d83836112db565b611d9d5760008381526006602090815260408083206001600160a01b03861684529091529020805460ff19166001179055611d553390565b6001600160a01b0316826001600160a01b0316847f2f8788117e7eff1d82e926ec794901d17c78024a50270940304540a733656f0d60405160405180910390a4506001610ba0565b506000610ba0565b60007f8b73c3c69bb8fe3d512ecc4cf759cc79239f7b179b0ffacaa9a75d522b39400f6000604051611dd79190613078565b6040805191829003822060208301939093528101919091527fc89efdaa54c0f20c7adf612882df0950f5a951637e0307cdcb4c672f298b8bc660608201524660808201523060a082015260c00160405160208183030381529060405280519060200120905090565b6000611e4b83836112db565b15611d9d5760008381526006602090815260408083206001600160a01b0386168085529252808320805460ff1916905551339286917ff6391f5c32d9c69d2a47ea670b442974b53935d1edc7fd64eb21e047a839171b9190a4506001610ba0565b6000610ba0611eba60025490565b611ec5906001613065565b611ecd610ada565b611ed8906001613065565b8491905b6000826000190484118302158202611ef357600080fd5b5091020490565b6000612710611f098385613119565b1015611f635760405162461bcd60e51b8152602060048201526024808201527f46433a20546f6f20736d616c6c20616d6f756e7420746f20636f6e73696465726044820152632066656560e01b6064820152608401610cc8565b612710611f708385613119565b610db69190613130565b600b546001600160a01b03163314610f42573360405163118cdaa760e01b8152600401610cc89190612d44565b600b80546001600160a01b038381166001600160a01b0319831681179093556040519116919082907f8be0079c531659141344cd1fd0a4f28419497f9722a3daafe3b4186f6b6457e090600090a35050565b604080516001600160a01b038681166024830152858116604483015284166064820152600783900b6084808301919091528251808303909101815260a490910182526020810180516001600160e01b031663eca3691760e01b1790529051600091829182916101679161206c9190613152565b6000604051808303816000865af19150503d80600081146120a9576040519150601f19603f3d011682016040523d82523d6000602084013e6120ae565b606091505b5091509150816120bf5760156120d3565b808060200190518101906120d39190613180565b9250600383900b6016146121295760405162461bcd60e51b815260206004820152601b60248201527f5361666520746f6b656e207472616e73666572206661696c65642100000000006044820152606401610cc8565b50505050505050565b6008546009546000916001600160a01b0316908290612152908590611efa565b905080826001600160a01b03166370a08231306040518263ffffffff1660e01b81526004016121819190612d44565b602060405180830381865afa15801561219e573d6000803e3d6000fd5b505050506040513d601f19601f820116820180604052508101906121c29190612f2d565b10156122105760405162461bcd60e51b815260206004820152601e60248201527f46433a20496e73756666696369656e7420746f6b656e2062616c616e636500006044820152606401610cc8565b60075461222a906001600160a01b038481169116836127ec565b6122348185612fda565b949350505050565b6001600160a01b03808216600081815260126020526040908190208690555190918416907f9d2f438fa9d25ba84aa5ca2b229d4ad0edad29fa7299e8f7dab10d9bc582391c9061228f903390889061319b565b60405180910390a3601680549060006122a7836131b4565b9190505550505050565b6001600160a01b0381166000908152601160209081526040808320869055600f909152812080548592906122e6908490613065565b92505081905550806001600160a01b0316826001600160a01b03167f21c9033b0fdf75a8e4138c4bd5aeae053eee01f1fbd47d59cde75ea492c156e3338660405161233292919061319b565b60405180910390a3601580549060006122a7836131b4565b60006040516323b872dd60e01b81528460048201528360248201528260448201526020600060648360008a5af13d15601f3d11600160005114161716915050806123cd5760405162461bcd60e51b81526020600482015260146024820152731514905394d1915497d19493d357d1905253115160621b6044820152606401610cc8565b5050505050565b604080516001600160a01b038381166024830152841660448083019190915282518083039091018152606490910182526020810180516001600160e01b031663248a35ef60e11b179052905160009182918291610167916124359190613152565b6000604051808303816000865af19150503d8060008114612472576040519150601f19603f3d011682016040523d82523d6000602084013e612477565b606091505b50915091508161248857601561249c565b8080602001905181019061249c9190613180565b9250600383900b6016146123cd5760405162461bcd60e51b815260206004820152601f60248201527f536166652073696e676c65206173736f63696174696f6e206661696c656421006044820152606401610cc8565b6000610ba06124ff610ada565b61250a906001613065565b600254611ecd565b6001600160a01b03821660009081526011602052604081205461253484610e76565b6001600160a01b0385166000908152601160209081526040808320839055601090915281208054929450839290919061256e908490612fda565b9091555061257d905082612844565b600c54604080516000808252602082019092526125c1926001600160a01b0316918591906125bb565b60608152602001906001900390816125a65790505b5061293a565b5050600c546125db906001600160a01b0316303385611ff9565b826001600160a01b0316846001600160a01b03167f97a83c0760e2cce8be754fa5c1eca3baac91df018bfbfdde7345be1652b01da68385604051611cf8929190918252602082015260400190565b600060405163a9059cbb60e01b8152836004820152826024820152602060006044836000895af13d15601f3d1160016000511416171691505080610de25760405162461bcd60e51b815260206004820152600f60248201526e1514905394d1915497d19052531151608a1b6044820152606401610cc8565b61271081106126e45760405162461bcd60e51b815260206004820152600f60248201526e46433a20496e76616c69642066656560881b6044820152606401610cc8565b600780546001600160a01b038581166001600160a01b0319928316811790935560088054918616919092168117909155600983905560408051928352602083019190915281018290527febd34b2df88ea5c9f67c04b13b08e5e63c2d17e269aab73b866fe47a8736a2649060600160405180910390a1505050565b6001600160a01b03821660009081526003602052604081208054839290612787908490612fda565b90915550506002805482900390556040518181526000906001600160a01b0384169060008051602061335983398151915290602001611b62565b6127cb82826112db565b611baf57808260405163e2517d3f60e01b8152600401610cc892919061319b565b610e7183846001600160a01b031663a9059cbb858560405160240161281292919061319b565b604051602081830303815290604052915060e01b6020820180516001600160e01b038381831617835250505050612a7d565b3360009081526013602052604090206002015460ff166128ee57600e5460005b818110156128c9576000600e828154811061288157612881612fed565b60009182526020808320909101546001600160a01b03168083526014825260408084205433855260138452818520928552600192830190935290922055919091019050612864565b5050336000908152601360205260409020818155600201805460ff1916600117905550565b6128f86000610f44565b50503360009081526013602052604081208054839290612919908490613065565b9250508190555080600d60008282546129329190613065565b909155505050565b6000606060008060006101676001600160a01b031663278e0b8860e01b89898960405160240161296c939291906131cd565b60408051601f198184030181529181526020820180516001600160e01b03166001600160e01b03199094169390931790925290516129aa9190613152565b6000604051808303816000865af19150503d80600081146129e7576040519150601f19603f3d011682016040523d82523d6000602084013e6129ec565b606091505b509150915081612a0f576040805160008082526020820190925260159190612a23565b80806020019051810190612a239190613252565b90965094509250600383900b601614612a725760405162461bcd60e51b815260206004820152601160248201527053616665206d696e74206661696c65642160781b6044820152606401610cc8565b505050935093915050565b6000612a926001600160a01b03841683612ad7565b90508051600014158015612ab7575080806020019051810190612ab59190613336565b155b15610e715782604051635274afe760e01b8152600401610cc89190612d44565b6060610db68383600084600080856001600160a01b03168486604051612afd9190613152565b60006040518083038185875af1925050503d8060008114612b3a576040519150601f19603f3d011682016040523d82523d6000602084013e612b3f565b606091505b5091509150612b4f868383612b59565b9695505050505050565b606082612b6e57612b6982612bac565b610db6565b8151158015612b8557506001600160a01b0384163b155b15612ba55783604051639996b31560e01b8152600401610cc89190612d44565b5080610db6565b805115612bbc5780518082602001fd5b604051630a12f52160e11b815260040160405180910390fd5b600060208284031215612be757600080fd5b81356001600160e01b031981168114610db657600080fd5b60005b83811015612c1a578181015183820152602001612c02565b50506000910152565b60008151808452612c3b816020860160208601612bff565b601f01601f19169290920160200192915050565b602081526000610db66020830184612c23565b80356001600160a01b0381168114612c7957600080fd5b919050565b60008060408385031215612c9157600080fd5b612c9a83612c62565b946020939093013593505050565b600060208284031215612cba57600080fd5b610db682612c62565b600080600060608486031215612cd857600080fd5b612ce184612c62565b9250612cef60208501612c62565b9150604084013590509250925092565b600060208284031215612d1157600080fd5b5035919050565b60008060408385031215612d2b57600080fd5b82359150612d3b60208401612c62565b90509250929050565b6001600160a01b0391909116815260200190565b60008060408385031215612d6b57600080fd5b612d7483612c62565b9150612d3b60208401612c62565b600080600060608486031215612d9757600080fd5b83359250612da760208501612c62565b9150612db560408501612c62565b90509250925092565b6020808252825182820181905260009190848201906040850190845b81811015612dff5783516001600160a01b031683529284019291840191600101612dda565b50909695505050505050565b600080600080600080600060e0888a031215612e2657600080fd5b612e2f88612c62565b9650612e3d60208901612c62565b95506040880135945060608801359350608088013560ff81168114612e6157600080fd5b9699959850939692959460a0840135945060c09093013592915050565b634e487b7160e01b600052604160045260246000fd5b604051601f8201601f1916810167ffffffffffffffff81118282101715612ebd57612ebd612e7e565b604052919050565b600060608284031215612ed757600080fd5b6040516060810181811067ffffffffffffffff82111715612efa57612efa612e7e565b604052612f0683612c62565b8152612f1460208401612c62565b6020820152604083013560408201528091505092915050565b600060208284031215612f3f57600080fd5b5051919050565b600181811c90821680612f5a57607f821691505b602082108103612f7a57634e487b7160e01b600052602260045260246000fd5b50919050565b60208082526024908201527f4173796e635661756c743a20496e76616c6964207265636569766572206164646040820152637265737360e01b606082015260800190565b634e487b7160e01b600052601160045260246000fd5b81810381811115610ba057610ba0612fc4565b634e487b7160e01b600052603260045260246000fd5b60208082526021908201527f4173796e635661756c743a20496e76616c6964206f776e6572206164647265736040820152607360f81b606082015260800190565b6001600160a01b039390931683526020830191909152604082015260600190565b80820180821115610ba057610ba0612fc4565b60008083548160018260011c9150600183168061309657607f831692505b602080841082036130b557634e487b7160e01b86526022600452602486fd5b8180156130c957600181146130de5761310b565b60ff198616895284151585028901965061310b565b60008a81526020902060005b868110156131035781548b8201529085019083016130ea565b505084890196505b509498975050505050505050565b8082028115828204841417610ba057610ba0612fc4565b60008261314d57634e487b7160e01b600052601260045260246000fd5b500490565b60008251613164818460208701612bff565b9190910192915050565b8051600381900b8114612c7957600080fd5b60006020828403121561319257600080fd5b610db68261316e565b6001600160a01b03929092168252602082015260400190565b6000600182016131c6576131c6612fc4565b5060010190565b60006060820160018060a01b0386168352602067ffffffffffffffff861660208501526060604085015281855180845260808601915060808160051b87010193506020870160005b8281101561324357607f19888703018452613231868351612c23565b95509284019290840190600101613215565b50939998505050505050505050565b60008060006060848603121561326757600080fd5b6132708461316e565b925060208085015167ffffffffffffffff808216821461328f57600080fd5b6040870151919450808211156132a457600080fd5b818701915087601f8301126132b857600080fd5b8151818111156132ca576132ca612e7e565b8060051b91506132db848301612e94565b818152918301840191848101908a8411156132f557600080fd5b938501935b8385101561332657845192508260070b83146133165760008081fd5b82825293850193908501906132fa565b8096505050505050509250925092565b60006020828403121561334857600080fd5b81518015158114610db657600080fdfeddf252ad1be2c89b69c2b068fc378daa952ba7f163c4a11628f55a4df523b3efa264697066735822122005356146d49d7aadc230c6f7456a45b857e144b7654ccb731d73e54e5b8281c664736f6c63430008180033",
  "linkReferences": {},
  "deployedLinkReferences": {}
}