{
  "_format": "hh-sol-artifact-1",
  "contractName": "BuildingFactoryMock",
  "sourceName": "contracts/buildings/mock/BuildingFactoryMock.sol",
  "abi": [
    {
      "inputs": [],
      "name": "InvalidInitialization",
      "type": "error"
    },
    {
      "inputs": [],
      "name": "NotInitializing",
      "type": "error"
    },
    {
      "inputs": [
        {
          "internalType": "address",
          "name": "owner",
          "type": "address"
        }
      ],
      "name": "OwnableInvalidOwner",
      "type": "error"
    },
    {
      "inputs": [
        {
          "internalType": "address",
          "name": "account",
          "type": "address"
        }
      ],
      "name": "OwnableUnauthorizedAccount",
      "type": "error"
    },
    {
      "anonymous": false,
      "inputs": [
        {
          "indexed": false,
          "internalType": "uint64",
          "name": "version",
          "type": "uint64"
        }
      ],
      "name": "Initialized",
      "type": "event"
    },
    {
      "anonymous": false,
      "inputs": [
        {
          "indexed": false,
          "internalType": "address",
          "name": "addr",
          "type": "address"
        }
      ],
      "name": "NewAuditRegistry",
      "type": "event"
    },
    {
      "anonymous": false,
      "inputs": [
        {
          "indexed": false,
          "internalType": "address",
          "name": "addr",
          "type": "address"
        }
      ],
      "name": "NewBuilding",
      "type": "event"
    },
    {
      "anonymous": false,
      "inputs": [
        {
          "indexed": true,
          "internalType": "address",
          "name": "previousOwner",
          "type": "address"
        },
        {
          "indexed": true,
          "internalType": "address",
          "name": "newOwner",
          "type": "address"
        }
      ],
      "name": "OwnershipTransferred",
      "type": "event"
    },
    {
      "inputs": [
        {
          "internalType": "address",
          "name": "buildingAddress",
          "type": "address"
        }
      ],
      "name": "getBuildingDetails",
      "outputs": [
        {
          "components": [
            {
              "internalType": "address",
              "name": "addr",
              "type": "address"
            },
            {
              "internalType": "uint256",
              "name": "nftId",
              "type": "uint256"
            },
            {
              "internalType": "string",
              "name": "tokenURI",
              "type": "string"
            },
            {
              "internalType": "address",
              "name": "identity",
              "type": "address"
            }
          ],
          "internalType": "struct BuildingFactory.BuildingInfo",
          "name": "",
          "type": "tuple"
        }
      ],
      "stateMutability": "view",
      "type": "function"
    },
    {
      "inputs": [],
      "name": "getBuildingList",
      "outputs": [
        {
          "components": [
            {
              "internalType": "address",
              "name": "addr",
              "type": "address"
            },
            {
              "internalType": "uint256",
              "name": "nftId",
              "type": "uint256"
            },
            {
              "internalType": "string",
              "name": "tokenURI",
              "type": "string"
            },
            {
              "internalType": "address",
              "name": "identity",
              "type": "address"
            }
          ],
          "internalType": "struct BuildingFactory.BuildingInfo[]",
          "name": "",
          "type": "tuple[]"
        }
      ],
      "stateMutability": "view",
      "type": "function"
    },
    {
      "inputs": [
        {
          "internalType": "address",
          "name": "_nft",
          "type": "address"
        },
        {
          "internalType": "address",
          "name": "_uniswapRouter",
          "type": "address"
        },
        {
          "internalType": "address",
          "name": "_uniswapFactory",
          "type": "address"
        },
        {
          "internalType": "address",
          "name": "_beacon",
          "type": "address"
        },
        {
          "internalType": "address",
          "name": "_onchainIdGateway",
          "type": "address"
        }
      ],
      "name": "initialize",
      "outputs": [],
      "stateMutability": "nonpayable",
      "type": "function"
    },
    {
      "inputs": [
        {
          "internalType": "string",
          "name": "tokenURI",
          "type": "string"
        }
      ],
      "name": "newBuilding",
      "outputs": [],
      "stateMutability": "nonpayable",
      "type": "function"
    },
    {
      "inputs": [],
      "name": "owner",
      "outputs": [
        {
          "internalType": "address",
          "name": "",
          "type": "address"
        }
      ],
      "stateMutability": "view",
      "type": "function"
    },
    {
      "inputs": [],
      "name": "renounceOwnership",
      "outputs": [],
      "stateMutability": "nonpayable",
      "type": "function"
    },
    {
      "inputs": [
        {
          "internalType": "address",
          "name": "newOwner",
          "type": "address"
        }
      ],
      "name": "transferOwnership",
      "outputs": [],
      "stateMutability": "nonpayable",
      "type": "function"
    },
    {
      "inputs": [],
      "name": "version",
      "outputs": [
        {
          "internalType": "string",
          "name": "",
          "type": "string"
        }
      ],
      "stateMutability": "pure",
      "type": "function"
    }
  ],
  "bytecode": "0x608060405234801561001057600080fd5b506116de806100206000396000f3fe60806040523480156200001157600080fd5b5060043610620000825760003560e01c80631459457a146200008757806354fd4d5014620000a0578063665fa4a114620000d0578063715018a614620000f65780638da5cb5b1462000100578063baff7ae71462000119578063db652ec81462000130578063f2fde38b1462000149575b600080fd5b6200009e6200009836600462000b80565b62000160565b005b60408051808201825260038152620322e360ec1b60208201529051620000c7919062000c44565b60405180910390f35b620000e7620000e136600462000c60565b6200026d565b604051620000c7919062000ccd565b6200009e620003b2565b6200010a620003ca565b604051620000c7919062000ce2565b6200009e6200012a36600462000d0c565b620003f8565b6200013a62000406565b604051620000c7919062000dc6565b6200009e6200015a36600462000c60565b62000544565b60006200016c6200058f565b805490915060ff600160401b82041615906001600160401b0316600081158015620001945750825b90506000826001600160401b03166001148015620001b15750303b155b905081158015620001c0575080155b15620001df5760405163f92ee8a960e01b815260040160405180910390fd5b845467ffffffffffffffff1916600117855583156200020a57845460ff60401b1916600160401b1785555b620002198a8a8a8a8a620005b3565b83156200026157845460ff60401b19168555604051600181527fc7f505b2f371ae2175ee4913f4499e1f2633a7b5936321eed1cdaeb6115181d2906020015b60405180910390a15b50505050505050505050565b620002ab604051806080016040528060006001600160a01b03168152602001600081526020016060815260200160006001600160a01b031681525090565b6000620002b762000715565b6001600160a01b0380851660009081526006830160209081526040918290208251608081018452815490941684526001810154918401919091526002810180549495509293909291840191906200030e9062000e2e565b80601f01602080910402602001604051908101604052809291908181526020018280546200033c9062000e2e565b80156200038d5780601f1062000361576101008083540402835291602001916200038d565b820191906000526020600020905b8154815290600101906020018083116200036f57829003601f168201915b5050509183525050600391909101546001600160a01b03166020909101529392505050565b620003bc62000739565b620003c8600062000770565b565b7f9016d09d72d40fdae2fd8ceac6b6234c7706214fd39c1cd1e609a0528c199300546001600160a01b031690565b6200040381620007e1565b50565b606060006200041462000715565b6005810180546040805160208084028201810190925282815293945060009084015b828210156200053a576000848152602090819020604080516080810182526004860290920180546001600160a01b03168352600181015493830193909352600283018054929392918401916200048c9062000e2e565b80601f0160208091040260200160405190810160405280929190818152602001828054620004ba9062000e2e565b80156200050b5780601f10620004df576101008083540402835291602001916200050b565b820191906000526020600020905b815481529060010190602001808311620004ed57829003601f168201915b5050509183525050600391909101546001600160a01b0316602091820152908252600192909201910162000436565b5050505091505090565b6200054e62000739565b6001600160a01b03811662000584576000604051631e4fbdf760e01b81526004016200057b919062000ce2565b60405180910390fd5b620004038162000770565b7ff0c57e16840df040f15088dc2f81fe391c3923bec73e23a9662efc9c229c6a0090565b6000620005bf6200058f565b805490915060ff600160401b82041615906001600160401b0316600081158015620005e75750825b90506000826001600160401b03166001148015620006045750303b155b90508115801562000613575080155b15620006325760405163f92ee8a960e01b815260040160405180910390fd5b845467ffffffffffffffff1916600117855583156200065d57845460ff60401b1916600160401b1785555b620006683362000af9565b60006200067462000715565b80546001600160a01b03199081166001600160a01b038e811691909117835560018301805483168e831617905560028301805483168d831617905560038301805483168c8316179055600490920180549091169189169190911790555083156200026157845460ff60401b19168555604051600181527fc7f505b2f371ae2175ee4913f4499e1f2633a7b5936321eed1cdaeb6115181d29060200162000258565b7f0f40dde8b99b0722537b774c6ef775b5e5a0af035d95bf9802cd87411f806f0090565b3362000744620003ca565b6001600160a01b031614620003c8573360405163118cdaa760e01b81526004016200057b919062000ce2565b7f9016d09d72d40fdae2fd8ceac6b6234c7706214fd39c1cd1e609a0528c19930080546001600160a01b031981166001600160a01b03848116918217845560405192169182907f8be0079c531659141344cd1fd0a4f28419497f9722a3daafe3b4186f6b6457e090600090a3505050565b6000620007ed62000715565b60038101546001820154600283015483546040516001600160a01b03938416602482015291831660448301528216606482015292935060009291169063c0c53b8b60e01b9060840160408051601f198184030181529181526020820180516001600160e01b03166001600160e01b0319909416939093179092529051620008749062000b5c565b6200088192919062000e6a565b604051809103906000f0801580156200089e573d6000803e3d6000fd5b50825460405163d0def52160e01b81529192506000916001600160a01b039091169063d0def52190620008d8908590889060040162000e6a565b6020604051808303816000875af1158015620008f8573d6000803e3d6000fd5b505050506040513d601f19601f820116820180604052508101906200091e919062000e98565b600480850154604051633e8e6e8b60e01b81529293506000926001600160a01b0390911691633e8e6e8b91620009579187910162000ce2565b6020604051808303816000875af115801562000977573d6000803e3d6000fd5b505050506040513d601f19601f820116820180604052508101906200099d919062000eb2565b604080516080810182526001600160a01b0386811680835260208084018881528486018c81528785166060870152600093845260068c0190925294909120835181546001600160a01b031916931692909217825592516001820155915192935091600282019062000a0f908262000f3c565b5060609190910151600390910180546001600160a01b039283166001600160a01b03199182161790915584821660009081526006870160209081526040822060058901805460018181018355918552929093208154600490930201805490941691909416178255828101549082015560028082019062000a929084018262001004565b50600391820154910180546001600160a01b0319166001600160a01b039092169190911790556040517f02eb67024749e9ed4b0bebae49012408b7466ee9ebbf5a0310811dc2c059d9cd9062000aea90859062000ce2565b60405180910390a15050505050565b62000b0362000b0e565b620004038162000b36565b62000b1862000b40565b620003c857604051631afcd79f60e31b815260040160405180910390fd5b6200054e62000b0e565b600062000b4c6200058f565b54600160401b900460ff16919050565b6105bf80620010ea83390190565b6001600160a01b03811681146200040357600080fd5b600080600080600060a0868803121562000b9957600080fd5b853562000ba68162000b6a565b9450602086013562000bb88162000b6a565b9350604086013562000bca8162000b6a565b9250606086013562000bdc8162000b6a565b9150608086013562000bee8162000b6a565b809150509295509295909350565b6000815180845260005b8181101562000c245760208185018101518683018201520162000c06565b506000602082860101526020601f19601f83011685010191505092915050565b60208152600062000c59602083018462000bfc565b9392505050565b60006020828403121562000c7357600080fd5b813562000c598162000b6a565b600060018060a01b038083511684526020830151602085015260408301516080604086015262000cb4608086018262000bfc565b9050816060850151166060860152809250505092915050565b60208152600062000c59602083018462000c80565b6001600160a01b0391909116815260200190565b634e487b7160e01b600052604160045260246000fd5b60006020828403121562000d1f57600080fd5b81356001600160401b038082111562000d3757600080fd5b818401915084601f83011262000d4c57600080fd5b81358181111562000d615762000d6162000cf6565b604051601f8201601f19908116603f0116810190838211818310171562000d8c5762000d8c62000cf6565b8160405282815287602084870101111562000da657600080fd5b826020860160208301376000928101602001929092525095945050505050565b600060208083016020845280855180835260408601915060408160051b87010192506020870160005b8281101562000e2157603f1988860301845262000e0e85835162000c80565b9450928501929085019060010162000def565b5092979650505050505050565b600181811c9082168062000e4357607f821691505b60208210810362000e6457634e487b7160e01b600052602260045260246000fd5b50919050565b6001600160a01b038316815260406020820181905260009062000e909083018462000bfc565b949350505050565b60006020828403121562000eab57600080fd5b5051919050565b60006020828403121562000ec557600080fd5b815162000c598162000b6a565b601f82111562000f22576000816000526020600020601f850160051c8101602086101562000efd5750805b601f850160051c820191505b8181101562000f1e5782815560010162000f09565b5050505b505050565b600019600383901b1c191660019190911b1790565b81516001600160401b0381111562000f585762000f5862000cf6565b62000f708162000f69845462000e2e565b8462000ed2565b602080601f83116001811462000fa4576000841562000f8f5750858301515b62000f9b858262000f27565b86555062000f1e565b600085815260208120601f198616915b8281101562000fd55788860151825594840194600190910190840162000fb4565b508582101562000ff45787850151600019600388901b60f8161c191681555b5050505050600190811b01905550565b81810362001010575050565b6200101c825462000e2e565b6001600160401b0381111562001036576200103662000cf6565b620010478162000f69845462000e2e565b6000601f8211600181146200107a5760008315620010655750848201545b62001071848262000f27565b855550620010e2565b600085815260209020601f19841690600086815260209020845b83811015620010b6578286015482556001958601959091019060200162001094565b5085831015620010d55781850154600019600388901b60f8161c191681555b50505060018360011b0184555b505050505056fe60a06040526040516105bf3803806105bf83398101604081905261002291610387565b61002c828261003e565b506001600160a01b031660805261047e565b610047826100fe565b6040516001600160a01b038316907f1cf3b03a6cf19fa2baba4df148e9dcabedea7f8a5c07840e207e5c089be95d3e90600090a28051156100f2576100ed826001600160a01b0316635c60da1b6040518163ffffffff1660e01b8152600401602060405180830381865afa1580156100c3573d6000803e3d6000fd5b505050506040513d601f19601f820116820180604052508101906100e79190610447565b82610211565b505050565b6100fa610288565b5050565b806001600160a01b03163b60000361013957604051631933b43b60e21b81526001600160a01b03821660048201526024015b60405180910390fd5b807fa3f0ad74e5423aebfd80d3ef4346578335a9a72aeaee59ff6cb3582b35133d5080546001600160a01b0319166001600160a01b0392831617905560408051635c60da1b60e01b81529051600092841691635c60da1b9160048083019260209291908290030181865afa1580156101b5573d6000803e3d6000fd5b505050506040513d601f19601f820116820180604052508101906101d99190610447565b9050806001600160a01b03163b6000036100fa57604051634c9c8ce360e01b81526001600160a01b0382166004820152602401610130565b6060600080846001600160a01b03168460405161022e9190610462565b600060405180830381855af49150503d8060008114610269576040519150601f19603f3d011682016040523d82523d6000602084013e61026e565b606091505b50909250905061027f8583836102a9565b95945050505050565b34156102a75760405163b398979f60e01b815260040160405180910390fd5b565b6060826102be576102b982610308565b610301565b81511580156102d557506001600160a01b0384163b155b156102fe57604051639996b31560e01b81526001600160a01b0385166004820152602401610130565b50805b9392505050565b8051156103185780518082602001fd5b604051630a12f52160e11b815260040160405180910390fd5b80516001600160a01b038116811461034857600080fd5b919050565b634e487b7160e01b600052604160045260246000fd5b60005b8381101561037e578181015183820152602001610366565b50506000910152565b6000806040838503121561039a57600080fd5b6103a383610331565b60208401519092506001600160401b03808211156103c057600080fd5b818501915085601f8301126103d457600080fd5b8151818111156103e6576103e661034d565b604051601f8201601f19908116603f0116810190838211818310171561040e5761040e61034d565b8160405282815288602084870101111561042757600080fd5b610438836020830160208801610363565b80955050505050509250929050565b60006020828403121561045957600080fd5b61030182610331565b60008251610474818460208701610363565b9190910192915050565b6080516101276104986000396000601e01526101276000f3fe6080604052600a600c565b005b60186014601a565b60a0565b565b60007f00000000000000000000000000000000000000000000000000000000000000006001600160a01b0316635c60da1b6040518163ffffffff1660e01b8152600401602060405180830381865afa1580156079573d6000803e3d6000fd5b505050506040513d601f19601f82011682018060405250810190609b919060c3565b905090565b3660008037600080366000845af43d6000803e80801560be573d6000f35b3d6000fd5b60006020828403121560d457600080fd5b81516001600160a01b038116811460ea57600080fd5b939250505056fea26469706673582212205c8a2fcdc6f79c1d43b849e2b03f494652cee222b2ec86046b7caaa1405f985f64736f6c63430008180033a2646970667358221220c77162d731c27c3b767f14b70a5906e01a8573cdd44203e199a501e134998b5c64736f6c63430008180033",
  "linkReferences": {},
  "deployedLinkReferences": {}
}