{
  "_format": "hh-sol-artifact-1",
  "contractName": "BuildingFactory",
  "sourceName": "contracts/buildings/BuildingFactory.sol",
  "abi": [
    {
      "inputs": [],
      "name": "InvalidInitialization",
      "type": "error"
    },
    {
      "inputs": [],
      "name": "NotInitializing",
      "type": "error"
    },
    {
      "inputs": [
        {
          "internalType": "address",
          "name": "owner",
          "type": "address"
        }
      ],
      "name": "OwnableInvalidOwner",
      "type": "error"
    },
    {
      "inputs": [
        {
          "internalType": "address",
          "name": "account",
          "type": "address"
        }
      ],
      "name": "OwnableUnauthorizedAccount",
      "type": "error"
    },
    {
      "anonymous": false,
      "inputs": [
        {
          "indexed": false,
          "internalType": "uint64",
          "name": "version",
          "type": "uint64"
        }
      ],
      "name": "Initialized",
      "type": "event"
    },
    {
      "anonymous": false,
      "inputs": [
        {
          "indexed": false,
          "internalType": "address",
          "name": "addr",
          "type": "address"
        }
      ],
      "name": "NewAuditRegistry",
      "type": "event"
    },
    {
      "anonymous": false,
      "inputs": [
        {
          "indexed": false,
          "internalType": "address",
          "name": "addr",
          "type": "address"
        }
      ],
      "name": "NewBuilding",
      "type": "event"
    },
    {
      "anonymous": false,
      "inputs": [
        {
          "indexed": true,
          "internalType": "address",
          "name": "previousOwner",
          "type": "address"
        },
        {
          "indexed": true,
          "internalType": "address",
          "name": "newOwner",
          "type": "address"
        }
      ],
      "name": "OwnershipTransferred",
      "type": "event"
    },
    {
      "inputs": [
        {
          "internalType": "address",
          "name": "buildingAddress",
          "type": "address"
        }
      ],
      "name": "getBuildingDetails",
      "outputs": [
        {
          "components": [
            {
              "internalType": "address",
              "name": "addr",
              "type": "address"
            },
            {
              "internalType": "uint256",
              "name": "nftId",
              "type": "uint256"
            },
            {
              "internalType": "string",
              "name": "tokenURI",
              "type": "string"
            },
            {
              "internalType": "address",
              "name": "identity",
              "type": "address"
            }
          ],
          "internalType": "struct BuildingFactory.BuildingInfo",
          "name": "",
          "type": "tuple"
        }
      ],
      "stateMutability": "view",
      "type": "function"
    },
    {
      "inputs": [],
      "name": "getBuildingList",
      "outputs": [
        {
          "components": [
            {
              "internalType": "address",
              "name": "addr",
              "type": "address"
            },
            {
              "internalType": "uint256",
              "name": "nftId",
              "type": "uint256"
            },
            {
              "internalType": "string",
              "name": "tokenURI",
              "type": "string"
            },
            {
              "internalType": "address",
              "name": "identity",
              "type": "address"
            }
          ],
          "internalType": "struct BuildingFactory.BuildingInfo[]",
          "name": "",
          "type": "tuple[]"
        }
      ],
      "stateMutability": "view",
      "type": "function"
    },
    {
      "inputs": [
        {
          "internalType": "address",
          "name": "_nft",
          "type": "address"
        },
        {
          "internalType": "address",
          "name": "_uniswapRouter",
          "type": "address"
        },
        {
          "internalType": "address",
          "name": "_uniswapFactory",
          "type": "address"
        },
        {
          "internalType": "address",
          "name": "_buildingBeacon",
          "type": "address"
        },
        {
          "internalType": "address",
          "name": "_onchainIdGateway",
          "type": "address"
        }
      ],
      "name": "initialize",
      "outputs": [],
      "stateMutability": "nonpayable",
      "type": "function"
    },
    {
      "inputs": [
        {
          "internalType": "string",
          "name": "tokenURI",
          "type": "string"
        }
      ],
      "name": "newBuilding",
      "outputs": [],
      "stateMutability": "nonpayable",
      "type": "function"
    },
    {
      "inputs": [],
      "name": "owner",
      "outputs": [
        {
          "internalType": "address",
          "name": "",
          "type": "address"
        }
      ],
      "stateMutability": "view",
      "type": "function"
    },
    {
      "inputs": [],
      "name": "renounceOwnership",
      "outputs": [],
      "stateMutability": "nonpayable",
      "type": "function"
    },
    {
      "inputs": [
        {
          "internalType": "address",
          "name": "newOwner",
          "type": "address"
        }
      ],
      "name": "transferOwnership",
      "outputs": [],
      "stateMutability": "nonpayable",
      "type": "function"
    }
  ],
  "bytecode": "0x608060405234801561001057600080fd5b50611586806100206000396000f3fe60806040523480156200001157600080fd5b5060043610620000765760003560e01c80631459457a146200007b578063665fa4a11462000094578063715018a614620000c35780638da5cb5b14620000cd578063baff7ae714620000e6578063db652ec814620000fd578063f2fde38b1462000116575b600080fd5b620000926200008c36600462000a3a565b6200012d565b005b620000ab620000a536600462000ab6565b620002b2565b604051620000ba919062000b72565b60405180910390f35b62000092620003f7565b620000d76200040f565b604051620000ba919062000b87565b62000092620000f736600462000bb1565b6200043d565b6200010762000755565b604051620000ba919062000c6c565b620000926200012736600462000ab6565b62000893565b7ff0c57e16840df040f15088dc2f81fe391c3923bec73e23a9662efc9c229c6a008054600160401b810460ff16159067ffffffffffffffff16600081158015620001745750825b905060008267ffffffffffffffff166001148015620001925750303b155b905081158015620001a1575080155b15620001c05760405163f92ee8a960e01b815260040160405180910390fd5b845467ffffffffffffffff191660011785558315620001eb57845460ff60401b1916600160401b1785555b620001f633620008e1565b600062000202620008f6565b80546001600160a01b03199081166001600160a01b038e811691909117835560018301805483168e831617905560028301805483168d831617905560038301805483168c831617905560049092018054909116918916919091179055508315620002a657845460ff60401b19168555604051600181527fc7f505b2f371ae2175ee4913f4499e1f2633a7b5936321eed1cdaeb6115181d29060200160405180910390a15b50505050505050505050565b620002f0604051806080016040528060006001600160a01b03168152602001600081526020016060815260200160006001600160a01b031681525090565b6000620002fc620008f6565b6001600160a01b038085166000908152600683016020908152604091829020825160808101845281549094168452600181015491840191909152600281018054949550929390929184019190620003539062000cd4565b80601f0160208091040260200160405190810160405280929190818152602001828054620003819062000cd4565b8015620003d25780601f10620003a657610100808354040283529160200191620003d2565b820191906000526020600020905b815481529060010190602001808311620003b457829003601f168201915b5050509183525050600391909101546001600160a01b03166020909101529392505050565b620004016200091a565b6200040d600062000951565b565b7f9016d09d72d40fdae2fd8ceac6b6234c7706214fd39c1cd1e609a0528c199300546001600160a01b031690565b600062000449620008f6565b60038101546001820154600283015483546040516001600160a01b03938416602482015291831660448301528216606482015292935060009291169063c0c53b8b60e01b9060840160408051601f198184030181529181526020820180516001600160e01b03166001600160e01b0319909416939093179092529051620004d09062000a16565b620004dd92919062000d10565b604051809103906000f080158015620004fa573d6000803e3d6000fd5b50825460405163d0def52160e01b81529192506000916001600160a01b039091169063d0def5219062000534908590889060040162000d10565b6020604051808303816000875af115801562000554573d6000803e3d6000fd5b505050506040513d601f19601f820116820180604052508101906200057a919062000d3e565b600480850154604051633e8e6e8b60e01b81529293506000926001600160a01b0390911691633e8e6e8b91620005b39187910162000b87565b6020604051808303816000875af1158015620005d3573d6000803e3d6000fd5b505050506040513d601f19601f82011682018060405250810190620005f9919062000d58565b604080516080810182526001600160a01b0386811680835260208084018881528486018c81528785166060870152600093845260068c0190925294909120835181546001600160a01b03191693169290921782559251600182015591519293509160028201906200066b908262000de2565b5060609190910151600390910180546001600160a01b039283166001600160a01b031991821617909155848216600090815260068701602090815260408220600589018054600181810183559185529290932081546004909302018054909416919094161782558281015490820155600280820190620006ee9084018262000eab565b50600391820154910180546001600160a01b0319166001600160a01b039092169190911790556040517f02eb67024749e9ed4b0bebae49012408b7466ee9ebbf5a0310811dc2c059d9cd906200074690859062000b87565b60405180910390a15050505050565b6060600062000763620008f6565b6005810180546040805160208084028201810190925282815293945060009084015b8282101562000889576000848152602090819020604080516080810182526004860290920180546001600160a01b0316835260018101549383019390935260028301805492939291840191620007db9062000cd4565b80601f0160208091040260200160405190810160405280929190818152602001828054620008099062000cd4565b80156200085a5780601f106200082e576101008083540402835291602001916200085a565b820191906000526020600020905b8154815290600101906020018083116200083c57829003601f168201915b5050509183525050600391909101546001600160a01b0316602091820152908252600192909201910162000785565b5050505091505090565b6200089d6200091a565b6001600160a01b038116620008d3576000604051631e4fbdf760e01b8152600401620008ca919062000b87565b60405180910390fd5b620008de8162000951565b50565b620008eb620009c2565b620008de8162000a0c565b7f0f40dde8b99b0722537b774c6ef775b5e5a0af035d95bf9802cd87411f806f0090565b33620009256200040f565b6001600160a01b0316146200040d573360405163118cdaa760e01b8152600401620008ca919062000b87565b7f9016d09d72d40fdae2fd8ceac6b6234c7706214fd39c1cd1e609a0528c19930080546001600160a01b031981166001600160a01b03848116918217845560405192169182907f8be0079c531659141344cd1fd0a4f28419497f9722a3daafe3b4186f6b6457e090600090a3505050565b7ff0c57e16840df040f15088dc2f81fe391c3923bec73e23a9662efc9c229c6a0054600160401b900460ff166200040d57604051631afcd79f60e31b815260040160405180910390fd5b6200089d620009c2565b6105bf8062000f9283390190565b6001600160a01b0381168114620008de57600080fd5b600080600080600060a0868803121562000a5357600080fd5b853562000a608162000a24565b9450602086013562000a728162000a24565b9350604086013562000a848162000a24565b9250606086013562000a968162000a24565b9150608086013562000aa88162000a24565b809150509295509295909350565b60006020828403121562000ac957600080fd5b813562000ad68162000a24565b9392505050565b6000815180845260005b8181101562000b055760208185018101518683018201520162000ae7565b506000602082860101526020601f19601f83011685010191505092915050565b600060018060a01b038083511684526020830151602085015260408301516080604086015262000b59608086018262000add565b9050816060850151166060860152809250505092915050565b60208152600062000ad6602083018462000b25565b6001600160a01b0391909116815260200190565b634e487b7160e01b600052604160045260246000fd5b60006020828403121562000bc457600080fd5b813567ffffffffffffffff8082111562000bdd57600080fd5b818401915084601f83011262000bf257600080fd5b81358181111562000c075762000c0762000b9b565b604051601f8201601f19908116603f0116810190838211818310171562000c325762000c3262000b9b565b8160405282815287602084870101111562000c4c57600080fd5b826020860160208301376000928101602001929092525095945050505050565b600060208083016020845280855180835260408601915060408160051b87010192506020870160005b8281101562000cc757603f1988860301845262000cb485835162000b25565b9450928501929085019060010162000c95565b5092979650505050505050565b600181811c9082168062000ce957607f821691505b60208210810362000d0a57634e487b7160e01b600052602260045260246000fd5b50919050565b6001600160a01b038316815260406020820181905260009062000d369083018462000add565b949350505050565b60006020828403121562000d5157600080fd5b5051919050565b60006020828403121562000d6b57600080fd5b815162000ad68162000a24565b601f82111562000dc8576000816000526020600020601f850160051c8101602086101562000da35750805b601f850160051c820191505b8181101562000dc45782815560010162000daf565b5050505b505050565b600019600383901b1c191660019190911b1790565b815167ffffffffffffffff81111562000dff5762000dff62000b9b565b62000e178162000e10845462000cd4565b8462000d78565b602080601f83116001811462000e4b576000841562000e365750858301515b62000e42858262000dcd565b86555062000dc4565b600085815260208120601f198616915b8281101562000e7c5788860151825594840194600190910190840162000e5b565b508582101562000e9b5787850151600019600388901b60f8161c191681555b5050505050600190811b01905550565b81810362000eb7575050565b62000ec3825462000cd4565b67ffffffffffffffff81111562000ede5762000ede62000b9b565b62000eef8162000e10845462000cd4565b6000601f82116001811462000f22576000831562000f0d5750848201545b62000f19848262000dcd565b85555062000f8a565b600085815260209020601f19841690600086815260209020845b8381101562000f5e578286015482556001958601959091019060200162000f3c565b508583101562000f7d5781850154600019600388901b60f8161c191681555b50505060018360011b0184555b505050505056fe60a06040526040516105bf3803806105bf83398101604081905261002291610387565b61002c828261003e565b506001600160a01b031660805261047e565b610047826100fe565b6040516001600160a01b038316907f1cf3b03a6cf19fa2baba4df148e9dcabedea7f8a5c07840e207e5c089be95d3e90600090a28051156100f2576100ed826001600160a01b0316635c60da1b6040518163ffffffff1660e01b8152600401602060405180830381865afa1580156100c3573d6000803e3d6000fd5b505050506040513d601f19601f820116820180604052508101906100e79190610447565b82610211565b505050565b6100fa610288565b5050565b806001600160a01b03163b60000361013957604051631933b43b60e21b81526001600160a01b03821660048201526024015b60405180910390fd5b807fa3f0ad74e5423aebfd80d3ef4346578335a9a72aeaee59ff6cb3582b35133d5080546001600160a01b0319166001600160a01b0392831617905560408051635c60da1b60e01b81529051600092841691635c60da1b9160048083019260209291908290030181865afa1580156101b5573d6000803e3d6000fd5b505050506040513d601f19601f820116820180604052508101906101d99190610447565b9050806001600160a01b03163b6000036100fa57604051634c9c8ce360e01b81526001600160a01b0382166004820152602401610130565b6060600080846001600160a01b03168460405161022e9190610462565b600060405180830381855af49150503d8060008114610269576040519150601f19603f3d011682016040523d82523d6000602084013e61026e565b606091505b50909250905061027f8583836102a9565b95945050505050565b34156102a75760405163b398979f60e01b815260040160405180910390fd5b565b6060826102be576102b982610308565b610301565b81511580156102d557506001600160a01b0384163b155b156102fe57604051639996b31560e01b81526001600160a01b0385166004820152602401610130565b50805b9392505050565b8051156103185780518082602001fd5b604051630a12f52160e11b815260040160405180910390fd5b80516001600160a01b038116811461034857600080fd5b919050565b634e487b7160e01b600052604160045260246000fd5b60005b8381101561037e578181015183820152602001610366565b50506000910152565b6000806040838503121561039a57600080fd5b6103a383610331565b60208401519092506001600160401b03808211156103c057600080fd5b818501915085601f8301126103d457600080fd5b8151818111156103e6576103e661034d565b604051601f8201601f19908116603f0116810190838211818310171561040e5761040e61034d565b8160405282815288602084870101111561042757600080fd5b610438836020830160208801610363565b80955050505050509250929050565b60006020828403121561045957600080fd5b61030182610331565b60008251610474818460208701610363565b9190910192915050565b6080516101276104986000396000601e01526101276000f3fe6080604052600a600c565b005b60186014601a565b60a0565b565b60007f00000000000000000000000000000000000000000000000000000000000000006001600160a01b0316635c60da1b6040518163ffffffff1660e01b8152600401602060405180830381865afa1580156079573d6000803e3d6000fd5b505050506040513d601f19601f82011682018060405250810190609b919060c3565b905090565b3660008037600080366000845af43d6000803e80801560be573d6000f35b3d6000fd5b60006020828403121560d457600080fd5b81516001600160a01b038116811460ea57600080fd5b939250505056fea26469706673582212205c8a2fcdc6f79c1d43b849e2b03f494652cee222b2ec86046b7caaa1405f985f64736f6c63430008180033a26469706673582212207f6f28cd33d32e0671a747c50f423c4259a7a739c5c366b12e455276ab3b62ee64736f6c63430008180033",
  "linkReferences": {},
  "deployedLinkReferences": {}
}