{
  "_format": "hh-sol-artifact-1",
  "contractName": "BuildingFactoryMock",
  "sourceName": "contracts/buildings/mock/BuildingFactoryMock.sol",
  "abi": [
    {
      "inputs": [],
      "name": "InvalidInitialization",
      "type": "error"
    },
    {
      "inputs": [],
      "name": "NotInitializing",
      "type": "error"
    },
    {
      "inputs": [
        {
          "internalType": "address",
          "name": "owner",
          "type": "address"
        }
      ],
      "name": "OwnableInvalidOwner",
      "type": "error"
    },
    {
      "inputs": [
        {
          "internalType": "address",
          "name": "account",
          "type": "address"
        }
      ],
      "name": "OwnableUnauthorizedAccount",
      "type": "error"
    },
    {
      "inputs": [
        {
          "internalType": "uint256",
          "name": "value",
          "type": "uint256"
        },
        {
          "internalType": "uint256",
          "name": "length",
          "type": "uint256"
        }
      ],
      "name": "StringsInsufficientHexLength",
      "type": "error"
    },
    {
      "anonymous": false,
      "inputs": [
        {
          "indexed": false,
          "internalType": "uint64",
          "name": "version",
          "type": "uint64"
        }
      ],
      "name": "Initialized",
      "type": "event"
    },
    {
      "anonymous": false,
      "inputs": [
        {
          "indexed": false,
          "internalType": "address",
          "name": "addr",
          "type": "address"
        }
      ],
      "name": "NewAuditRegistry",
      "type": "event"
    },
    {
      "anonymous": false,
      "inputs": [
        {
          "indexed": false,
          "internalType": "address",
          "name": "addr",
          "type": "address"
        }
      ],
      "name": "NewBuilding",
      "type": "event"
    },
    {
      "anonymous": false,
      "inputs": [
        {
          "indexed": false,
          "internalType": "address",
          "name": "building",
          "type": "address"
        },
        {
          "indexed": false,
          "internalType": "address",
          "name": "token",
          "type": "address"
        }
      ],
      "name": "NewERC3643Token",
      "type": "event"
    },
    {
      "anonymous": false,
      "inputs": [
        {
          "indexed": true,
          "internalType": "address",
          "name": "previousOwner",
          "type": "address"
        },
        {
          "indexed": true,
          "internalType": "address",
          "name": "newOwner",
          "type": "address"
        }
      ],
      "name": "OwnershipTransferred",
      "type": "event"
    },
    {
      "inputs": [
        {
          "internalType": "address",
          "name": "buildingAddress",
          "type": "address"
        },
        {
          "internalType": "address",
          "name": "callableContract",
          "type": "address"
        },
        {
          "internalType": "bytes",
          "name": "data",
          "type": "bytes"
        }
      ],
      "name": "callFromBuilding",
      "outputs": [],
      "stateMutability": "nonpayable",
      "type": "function"
    },
    {
      "inputs": [
        {
          "internalType": "address",
          "name": "buildingAddress",
          "type": "address"
        }
      ],
      "name": "getBuildingDetails",
      "outputs": [
        {
          "components": [
            {
              "internalType": "address",
              "name": "addr",
              "type": "address"
            },
            {
              "internalType": "uint256",
              "name": "nftId",
              "type": "uint256"
            },
            {
              "internalType": "string",
              "name": "tokenURI",
              "type": "string"
            },
            {
              "internalType": "address",
              "name": "identity",
              "type": "address"
            },
            {
              "internalType": "address",
              "name": "erc3643Token",
              "type": "address"
            }
          ],
          "internalType": "struct BuildingFactory.BuildingInfo",
          "name": "",
          "type": "tuple"
        }
      ],
      "stateMutability": "view",
      "type": "function"
    },
    {
      "inputs": [],
      "name": "getBuildingList",
      "outputs": [
        {
          "components": [
            {
              "internalType": "address",
              "name": "addr",
              "type": "address"
            },
            {
              "internalType": "uint256",
              "name": "nftId",
              "type": "uint256"
            },
            {
              "internalType": "string",
              "name": "tokenURI",
              "type": "string"
            },
            {
              "internalType": "address",
              "name": "identity",
              "type": "address"
            },
            {
              "internalType": "address",
              "name": "erc3643Token",
              "type": "address"
            }
          ],
          "internalType": "struct BuildingFactory.BuildingInfo[]",
          "name": "",
          "type": "tuple[]"
        }
      ],
      "stateMutability": "view",
      "type": "function"
    },
    {
      "inputs": [
        {
          "internalType": "address",
          "name": "_nft",
          "type": "address"
        },
        {
          "internalType": "address",
          "name": "_uniswapRouter",
          "type": "address"
        },
        {
          "internalType": "address",
          "name": "_uniswapFactory",
          "type": "address"
        },
        {
          "internalType": "address",
          "name": "_beacon",
          "type": "address"
        },
        {
          "internalType": "address",
          "name": "_onchainIdGateway",
          "type": "address"
        },
        {
          "internalType": "address",
          "name": "_trexGateway",
          "type": "address"
        }
      ],
      "name": "initialize",
      "outputs": [],
      "stateMutability": "nonpayable",
      "type": "function"
    },
    {
      "inputs": [
        {
          "internalType": "string",
          "name": "tokenURI",
          "type": "string"
        }
      ],
      "name": "newBuilding",
      "outputs": [],
      "stateMutability": "nonpayable",
      "type": "function"
    },
    {
      "inputs": [
        {
          "internalType": "address",
          "name": "buildingAddress",
          "type": "address"
        },
        {
          "internalType": "string",
          "name": "name",
          "type": "string"
        },
        {
          "internalType": "string",
          "name": "symbol",
          "type": "string"
        },
        {
          "internalType": "uint8",
          "name": "decimals",
          "type": "uint8"
        }
      ],
      "name": "newERC3643Token",
      "outputs": [],
      "stateMutability": "nonpayable",
      "type": "function"
    },
    {
      "inputs": [],
      "name": "owner",
      "outputs": [
        {
          "internalType": "address",
          "name": "",
          "type": "address"
        }
      ],
      "stateMutability": "view",
      "type": "function"
    },
    {
      "inputs": [],
      "name": "renounceOwnership",
      "outputs": [],
      "stateMutability": "nonpayable",
      "type": "function"
    },
    {
      "inputs": [
        {
          "internalType": "address",
          "name": "newOwner",
          "type": "address"
        }
      ],
      "name": "transferOwnership",
      "outputs": [],
      "stateMutability": "nonpayable",
      "type": "function"
    },
    {
      "inputs": [],
      "name": "version",
      "outputs": [
        {
          "internalType": "string",
          "name": "",
          "type": "string"
        }
      ],
      "stateMutability": "pure",
      "type": "function"
    }
  ],
  "bytecode": "0x608060405234801561001057600080fd5b506125ae806100206000396000f3fe60806040523480156200001157600080fd5b5060043610620000ab5760003560e01c80638da5cb5b116200006e5780638da5cb5b1462000140578063baff7ae71462000159578063cc2a9a5b1462000170578063db652ec81462000187578063f2fde38b14620001a057600080fd5b806344cccdcf14620000b057806354fd4d5014620000c9578063665fa4a114620000f9578063715018a6146200011f5780638090fc7a1462000129575b600080fd5b620000c7620000c136600462001578565b620001b7565b005b60408051808201825260038152620322e360ec1b60208201529051620000f091906200164a565b60405180910390f35b620001106200010a36600462001666565b62000311565b604051620000f09190620016df565b620000c762000450565b620000c76200013a36600462001717565b62000468565b6200014a620005eb565b604051620000f09190620017af565b620000c76200016a366004620017c3565b62000619565b620000c762000181366004620017fb565b62000627565b6200019162000736565b604051620000f091906200188a565b620000c7620001b136600462001666565b62000884565b6000620001c3620008c6565b6001600160a01b0380861660008181526007840160205260409020549293509116146200020d5760405162461bcd60e51b81526004016200020490620018f2565b60405180910390fd5b6001600160a01b038316600090815260088201602052604090205460ff161515600114620002915760405162461bcd60e51b815260206004820152602a60248201527f4275696c64696e67466163746f72793a20496e76616c69642063616c6c61626c604482015269194818dbdb9d1c9858dd60b21b606482015260840162000204565b604051626e20cd60e31b81526001600160a01b03851690630371066890620002c090869086906004016200193b565b6000604051808303816000875af1158015620002e0573d6000803e3d6000fd5b505050506040513d6000823e601f3d908101601f191682016040526200030a919081019062001961565b5050505050565b6040805160a0810182526000808252602082018190526060928201839052918101829052608081018290529062000347620008c6565b6001600160a01b038085166000908152600783016020908152604091829020825160a081018452815490941684526001810154918401919091526002810180549495509293909291840191906200039e90620019e0565b80601f0160208091040260200160405190810160405280929190818152602001828054620003cc90620019e0565b80156200041d5780601f10620003f1576101008083540402835291602001916200041d565b820191906000526020600020905b815481529060010190602001808311620003ff57829003601f168201915b505050918352505060038201546001600160a01b0390811660208301526004909201549091166040909101529392505050565b6200045a620008ea565b62000466600062000921565b565b600062000474620008c6565b90506001600160a01b03851615801590620004aa57506001600160a01b0385811660009081526007830160205260409020541615155b620004c95760405162461bcd60e51b81526004016200020490620018f2565b6001600160a01b0385811660009081526007830160205260409020600401541615620005545760405162461bcd60e51b815260206004820152603360248201527f4275696c64696e67466163746f72793a20746f6b656e20616c7265616479206360448201527272656174656420666f72206275696c64696e6760681b606482015260840162000204565b600581015460009062000574906001600160a01b03168787878762000992565b6001600160a01b03878116600081815260078601602090815260409182902060040180546001600160a01b031916948616948517905581519283528201929092529192507fb248a19ee520af52b2708cdaad4b5668a428f194685638a13d8a7b9ee84711a3910160405180910390a1505050505050565b7f9016d09d72d40fdae2fd8ceac6b6234c7706214fd39c1cd1e609a0528c199300546001600160a01b031690565b620006248162000b2a565b50565b60006200063362000e78565b805490915060ff600160401b82041615906001600160401b03166000811580156200065b5750825b90506000826001600160401b03166001148015620006785750303b155b90508115801562000687575080155b15620006a65760405163f92ee8a960e01b815260040160405180910390fd5b845467ffffffffffffffff191660011785558315620006d157845460ff60401b1916600160401b1785555b620006e18b8b8b8b8b8b62000e9c565b83156200072957845460ff60401b19168555604051600181527fc7f505b2f371ae2175ee4913f4499e1f2633a7b5936321eed1cdaeb6115181d2906020015b60405180910390a15b5050505050505050505050565b6060600062000744620008c6565b6006810180546040805160208084028201810190925282815293945060009084015b828210156200087a5760008481526020908190206040805160a0810182526005860290920180546001600160a01b0316835260018101549383019390935260028301805492939291840191620007bc90620019e0565b80601f0160208091040260200160405190810160405280929190818152602001828054620007ea90620019e0565b80156200083b5780601f106200080f576101008083540402835291602001916200083b565b820191906000526020600020905b8154815290600101906020018083116200081d57829003601f168201915b505050918352505060038201546001600160a01b0390811660208084019190915260049093015416604090910152908252600192909201910162000766565b5050505091505090565b6200088e620008ea565b6001600160a01b038116620008bb576000604051631e4fbdf760e01b8152600401620002049190620017af565b620006248162000921565b7f0f40dde8b99b0722537b774c6ef775b5e5a0af035d95bf9802cd87411f806f0090565b33620008f5620005eb565b6001600160a01b03161462000466573360405163118cdaa760e01b8152600401620002049190620017af565b7f9016d09d72d40fdae2fd8ceac6b6234c7706214fd39c1cd1e609a0528c19930080546001600160a01b031981166001600160a01b03848116918217845560405192169182907f8be0079c531659141344cd1fd0a4f28419497f9722a3daafe3b4186f6b6457e090600090a3505050565b6000856001600160a01b031663c8eebfcc620009b187878787620010da565b620009bb620011fc565b6040518363ffffffff1660e01b8152600401620009da92919062001b90565b600060405180830381600087803b158015620009f557600080fd5b505af115801562000a0a573d6000803e3d6000fd5b50505050600062000a1b8662001280565b8560405160200162000a2f92919062001cc7565b60405160208183030381529060405290506000876001600160a01b03166388cc58e46040518163ffffffff1660e01b8152600401602060405180830381865afa15801562000a81573d6000803e3d6000fd5b505050506040513d601f19601f8201168201806040525081019062000aa7919062001cfa565b90506000816001600160a01b031663c1733f68846040518263ffffffff1660e01b815260040162000ad991906200164a565b602060405180830381865afa15801562000af7573d6000803e3d6000fd5b505050506040513d601f19601f8201168201806040525081019062000b1d919062001cfa565b9998505050505050505050565b600062000b36620008c6565b60038101546001820154600283015483546040516001600160a01b03938416602482015291831660448301528216606482015292935060009291169063c0c53b8b60e01b9060840160408051601f198184030181529181526020820180516001600160e01b03166001600160e01b031990941693909317909252905162000bbd906200149e565b62000bca9291906200193b565b604051809103906000f08015801562000be7573d6000803e3d6000fd5b50825460405163d0def52160e01b81529192506000916001600160a01b039091169063d0def5219062000c2190859088906004016200193b565b6020604051808303816000875af115801562000c41573d6000803e3d6000fd5b505050506040513d601f19601f8201168201806040525081019062000c67919062001d1a565b600480850154604051633e8e6e8b60e01b81529293506000926001600160a01b0390911691633e8e6e8b9162000ca091879101620017af565b6020604051808303816000875af115801562000cc0573d6000803e3d6000fd5b505050506040513d601f19601f8201168201806040525081019062000ce6919062001cfa565b6040805160a0810182526001600160a01b0386811680835260208084018881528486018c8152878516606087015260006080870181905293845260078c0190925294909120835181546001600160a01b031916931692909217825592516001820155915192935091600282019062000d5f908262001d9e565b5060608201516003820180546001600160a01b03199081166001600160a01b0393841617909155608090930151600490920180548416928216929092179091558481166000908152600787016020908152604082206006890180546001818101835591855292909320815460059093020180549290941691909416178255828101549082015560028082019062000df99084018262001e66565b5060038281015490820180546001600160a01b03199081166001600160a01b039384161790915560049384015493909201805490921692169190911790556040517f02eb67024749e9ed4b0bebae49012408b7466ee9ebbf5a0310811dc2c059d9cd9062000e69908590620017af565b60405180910390a15050505050565b7ff0c57e16840df040f15088dc2f81fe391c3923bec73e23a9662efc9c229c6a0090565b600062000ea862000e78565b805490915060ff600160401b82041615906001600160401b031660008115801562000ed05750825b90506000826001600160401b0316600114801562000eed5750303b155b90508115801562000efc575080155b1562000f1b5760405163f92ee8a960e01b815260040160405180910390fd5b845467ffffffffffffffff19166001178555831562000f4657845460ff60401b1916600160401b1785555b62000f51336200129e565b600062000f5d620008c6565b90508b8160000160006101000a8154816001600160a01b0302191690836001600160a01b031602179055508a8160010160006101000a8154816001600160a01b0302191690836001600160a01b03160217905550898160020160006101000a8154816001600160a01b0302191690836001600160a01b03160217905550888160030160006101000a8154816001600160a01b0302191690836001600160a01b03160217905550878160040160006101000a8154816001600160a01b0302191690836001600160a01b03160217905550868160050160006101000a8154816001600160a01b0302191690836001600160a01b0316021790555060018160080160008e6001600160a01b03166001600160a01b0316815260200190815260200160002060006101000a81548160ff0219169083151502179055505083156200072957845460ff60401b19168555604051600181527fc7f505b2f371ae2175ee4913f4499e1f2633a7b5936321eed1cdaeb6115181d29060200162000720565b6200114f60405180610140016040528060006001600160a01b031681526020016060815260200160608152602001600060ff16815260200160006001600160a01b0316815260200160006001600160a01b03168152602001606081526020016060815260200160608152602001606081525090565b60408051600080825260208201818152828401828152606084018381526080850190955291938493929084908162001198565b6060815260200190600190039081620011825790505b5060408051610140810182526001600160a01b03808f168252602082018e90529181018c905260ff8b16606082015297811660808901529590951660a08701525060c085019290925260e08401526101008301526101208201529050949350505050565b6200122160405180606001604052806060815260200160608152602001606081525090565b60408051600080825260208201818152828401828152606084019094529192816200125d565b6060815260200190600190039081620012475790505b506040805160608101825294855260208501939093529183019190915250919050565b6060620012986001600160a01b0383166014620012b3565b92915050565b620012a862001450565b620006248162001478565b6060826000620012c584600262001f59565b620012d290600262001f73565b6001600160401b03811115620012ec57620012ec620014c2565b6040519080825280601f01601f19166020018201604052801562001317576020820181803683370190505b509050600360fc1b8160008151811062001335576200133562001f89565b60200101906001600160f81b031916908160001a905350600f60fb1b8160018151811062001367576200136762001f89565b60200101906001600160f81b031916908160001a90535060006200138d85600262001f59565b6200139a90600162001f73565b90505b60018111156200141c576f181899199a1a9b1b9c1cb0b131b232b360811b83600f1660108110620013d257620013d262001f89565b1a60f81b828281518110620013eb57620013eb62001f89565b60200101906001600160f81b031916908160001a90535060049290921c91620014148162001f9f565b90506200139d565b508115620014485760405163e22e27eb60e01b8152600481018690526024810185905260440162000204565b949350505050565b6200145a62001482565b6200046657604051631afcd79f60e31b815260040160405180910390fd5b6200088e62001450565b60006200148e62000e78565b54600160401b900460ff16919050565b6105bf8062001fba83390190565b6001600160a01b03811681146200062457600080fd5b634e487b7160e01b600052604160045260246000fd5b604051601f8201601f191681016001600160401b0381118282101715620015035762001503620014c2565b604052919050565b60006001600160401b03821115620015275762001527620014c2565b50601f01601f191660200190565b60006200154c62001546846200150b565b620014d8565b90508281528383830111156200156157600080fd5b828260208301376000602084830101529392505050565b6000806000606084860312156200158e57600080fd5b83356200159b81620014ac565b92506020840135620015ad81620014ac565b915060408401356001600160401b03811115620015c957600080fd5b8401601f81018613620015db57600080fd5b620015ec8682356020840162001535565b9150509250925092565b60005b8381101562001613578181015183820152602001620015f9565b50506000910152565b6000815180845262001636816020860160208601620015f6565b601f01601f19169290920160200192915050565b6020815260006200165f60208301846200161c565b9392505050565b6000602082840312156200167957600080fd5b81356200165f81620014ac565b600060018060a01b0380835116845260208301516020850152604083015160a06040860152620016ba60a08601826200161c565b9050816060850151166060860152816080850151166080860152809250505092915050565b6020815260006200165f602083018462001686565b600082601f8301126200170657600080fd5b6200165f8383356020850162001535565b600080600080608085870312156200172e57600080fd5b84356200173b81620014ac565b935060208501356001600160401b03808211156200175857600080fd5b6200176688838901620016f4565b945060408701359150808211156200177d57600080fd5b506200178c87828801620016f4565b925050606085013560ff81168114620017a457600080fd5b939692955090935050565b6001600160a01b0391909116815260200190565b600060208284031215620017d657600080fd5b81356001600160401b03811115620017ed57600080fd5b6200144884828501620016f4565b60008060008060008060c087890312156200181557600080fd5b86356200182281620014ac565b955060208701356200183481620014ac565b945060408701356200184681620014ac565b935060608701356200185881620014ac565b925060808701356200186a81620014ac565b915060a08701356200187c81620014ac565b809150509295509295509295565b600060208083016020845280855180835260408601915060408160051b87010192506020870160005b82811015620018e557603f19888603018452620018d285835162001686565b94509285019290850190600101620018b3565b5092979650505050505050565b60208082526029908201527f4275696c64696e67466163746f72793a20496e76616c6964206275696c64696e60408201526867206164647265737360b81b606082015260800190565b6001600160a01b038316815260406020820181905260009062001448908301846200161c565b6000602082840312156200197457600080fd5b81516001600160401b038111156200198b57600080fd5b8201601f810184136200199d57600080fd5b8051620019ae62001546826200150b565b818152856020838501011115620019c457600080fd5b620019d7826020830160208601620015f6565b95945050505050565b600181811c90821680620019f557607f821691505b60208210810362001a1657634e487b7160e01b600052602260045260246000fd5b50919050565b60008151808452602080850194506020840160005b8381101562001a585781516001600160a01b03168752958201959082019060010162001a31565b509495945050505050565b60008282518085526020808601955060208260051b8401016020860160005b8481101562001ab457601f1986840301895262001aa18383516200161c565b9884019892509083019060010162001a82565b5090979650505050505050565b60008151808452602080850194506020840160005b8381101562001a585781518752958201959082019060010162001ad6565b600081516060845262001b0b606085018262001ac1565b90506020808401518583038287015262001b26838262001a1c565b925050604084015185830360408701528281518085528385019150838160051b860101848401935060005b8281101562001b8357601f1987830301845262001b7082865162001ac1565b9486019493860193915060010162001b51565b5098975050505050505050565b6040815262001bab6040820184516001600160a01b03169052565b6000602084015161014080606085015262001bcb6101808501836200161c565b91506040860151603f198086850301608087015262001beb84836200161c565b93506060880151915062001c0460a087018360ff169052565b60808801516001600160a01b03811660c0880152915060a08801516001600160a01b03811660e0880152915060c0880151915061010081878603018188015262001c4f858462001a1c565b945060e0890151925061012082888703018189015262001c70868562001a1c565b9550818a0151935082888703018589015262001c8d868562001a1c565b9550808a0151945050508086850301610160870152505062001cb0828262001a63565b9150508281036020840152620019d7818562001af4565b6000835162001cdb818460208801620015f6565b83519083019062001cf1818360208801620015f6565b01949350505050565b60006020828403121562001d0d57600080fd5b81516200165f81620014ac565b60006020828403121562001d2d57600080fd5b5051919050565b601f82111562001d84576000816000526020600020601f850160051c8101602086101562001d5f5750805b601f850160051c820191505b8181101562001d805782815560010162001d6b565b5050505b505050565b600019600383901b1c191660019190911b1790565b81516001600160401b0381111562001dba5762001dba620014c2565b62001dd28162001dcb8454620019e0565b8462001d34565b602080601f83116001811462001e06576000841562001df15750858301515b62001dfd858262001d89565b86555062001d80565b600085815260208120601f198616915b8281101562001e375788860151825594840194600190910190840162001e16565b508582101562001e565787850151600019600388901b60f8161c191681555b5050505050600190811b01905550565b81810362001e72575050565b62001e7e8254620019e0565b6001600160401b0381111562001e985762001e98620014c2565b62001ea98162001dcb8454620019e0565b6000601f82116001811462001edc576000831562001ec75750848201545b62001ed3848262001d89565b8555506200030a565b600085815260209020601f19841690600086815260209020845b8381101562001f18578286015482556001958601959091019060200162001ef6565b508583101562001e565793015460001960f8600387901b161c19169092555050600190811b01905550565b634e487b7160e01b600052601160045260246000fd5b808202811582820484141762001298576200129862001f43565b8082018082111562001298576200129862001f43565b634e487b7160e01b600052603260045260246000fd5b60008162001fb15762001fb162001f43565b50600019019056fe60a06040526040516105bf3803806105bf83398101604081905261002291610387565b61002c828261003e565b506001600160a01b031660805261047e565b610047826100fe565b6040516001600160a01b038316907f1cf3b03a6cf19fa2baba4df148e9dcabedea7f8a5c07840e207e5c089be95d3e90600090a28051156100f2576100ed826001600160a01b0316635c60da1b6040518163ffffffff1660e01b8152600401602060405180830381865afa1580156100c3573d6000803e3d6000fd5b505050506040513d601f19601f820116820180604052508101906100e79190610447565b82610211565b505050565b6100fa610288565b5050565b806001600160a01b03163b60000361013957604051631933b43b60e21b81526001600160a01b03821660048201526024015b60405180910390fd5b807fa3f0ad74e5423aebfd80d3ef4346578335a9a72aeaee59ff6cb3582b35133d5080546001600160a01b0319166001600160a01b0392831617905560408051635c60da1b60e01b81529051600092841691635c60da1b9160048083019260209291908290030181865afa1580156101b5573d6000803e3d6000fd5b505050506040513d601f19601f820116820180604052508101906101d99190610447565b9050806001600160a01b03163b6000036100fa57604051634c9c8ce360e01b81526001600160a01b0382166004820152602401610130565b6060600080846001600160a01b03168460405161022e9190610462565b600060405180830381855af49150503d8060008114610269576040519150601f19603f3d011682016040523d82523d6000602084013e61026e565b606091505b50909250905061027f8583836102a9565b95945050505050565b34156102a75760405163b398979f60e01b815260040160405180910390fd5b565b6060826102be576102b982610308565b610301565b81511580156102d557506001600160a01b0384163b155b156102fe57604051639996b31560e01b81526001600160a01b0385166004820152602401610130565b50805b9392505050565b8051156103185780518082602001fd5b604051630a12f52160e11b815260040160405180910390fd5b80516001600160a01b038116811461034857600080fd5b919050565b634e487b7160e01b600052604160045260246000fd5b60005b8381101561037e578181015183820152602001610366565b50506000910152565b6000806040838503121561039a57600080fd5b6103a383610331565b60208401519092506001600160401b03808211156103c057600080fd5b818501915085601f8301126103d457600080fd5b8151818111156103e6576103e661034d565b604051601f8201601f19908116603f0116810190838211818310171561040e5761040e61034d565b8160405282815288602084870101111561042757600080fd5b610438836020830160208801610363565b80955050505050509250929050565b60006020828403121561045957600080fd5b61030182610331565b60008251610474818460208701610363565b9190910192915050565b6080516101276104986000396000601e01526101276000f3fe6080604052600a600c565b005b60186014601a565b60a0565b565b60007f00000000000000000000000000000000000000000000000000000000000000006001600160a01b0316635c60da1b6040518163ffffffff1660e01b8152600401602060405180830381865afa1580156079573d6000803e3d6000fd5b505050506040513d601f19601f82011682018060405250810190609b919060c3565b905090565b3660008037600080366000845af43d6000803e80801560be573d6000f35b3d6000fd5b60006020828403121560d457600080fd5b81516001600160a01b038116811460ea57600080fd5b939250505056fea26469706673582212205c8a2fcdc6f79c1d43b849e2b03f494652cee222b2ec86046b7caaa1405f985f64736f6c63430008180033a264697066735822122029138e1d5ba96c4b777e85b1e652e0119db620c9aa28ec8d7dff33ae5be8bf7464736f6c63430008180033",
  "linkReferences": {},
  "deployedLinkReferences": {}
}