{
  "_format": "hh-sol-artifact-1",
  "contractName": "BuildingFactory",
  "sourceName": "contracts/buildings/BuildingFactory.sol",
  "abi": [
    {
      "inputs": [],
      "name": "InvalidInitialization",
      "type": "error"
    },
    {
      "inputs": [],
      "name": "NotInitializing",
      "type": "error"
    },
    {
      "inputs": [
        {
          "internalType": "address",
          "name": "owner",
          "type": "address"
        }
      ],
      "name": "OwnableInvalidOwner",
      "type": "error"
    },
    {
      "inputs": [
        {
          "internalType": "address",
          "name": "account",
          "type": "address"
        }
      ],
      "name": "OwnableUnauthorizedAccount",
      "type": "error"
    },
    {
      "inputs": [
        {
          "internalType": "uint256",
          "name": "value",
          "type": "uint256"
        },
        {
          "internalType": "uint256",
          "name": "length",
          "type": "uint256"
        }
      ],
      "name": "StringsInsufficientHexLength",
      "type": "error"
    },
    {
      "anonymous": false,
      "inputs": [
        {
          "indexed": false,
          "internalType": "uint64",
          "name": "version",
          "type": "uint64"
        }
      ],
      "name": "Initialized",
      "type": "event"
    },
    {
      "anonymous": false,
      "inputs": [
        {
          "indexed": false,
          "internalType": "address",
          "name": "addr",
          "type": "address"
        }
      ],
      "name": "NewAuditRegistry",
      "type": "event"
    },
    {
      "anonymous": false,
      "inputs": [
        {
          "indexed": false,
          "internalType": "address",
          "name": "addr",
          "type": "address"
        }
      ],
      "name": "NewBuilding",
      "type": "event"
    },
    {
      "anonymous": false,
      "inputs": [
        {
          "indexed": false,
          "internalType": "address",
          "name": "building",
          "type": "address"
        },
        {
          "indexed": false,
          "internalType": "address",
          "name": "token",
          "type": "address"
        }
      ],
      "name": "NewERC3643Token",
      "type": "event"
    },
    {
      "anonymous": false,
      "inputs": [
        {
          "indexed": true,
          "internalType": "address",
          "name": "previousOwner",
          "type": "address"
        },
        {
          "indexed": true,
          "internalType": "address",
          "name": "newOwner",
          "type": "address"
        }
      ],
      "name": "OwnershipTransferred",
      "type": "event"
    },
    {
      "inputs": [
        {
          "internalType": "address",
          "name": "buildingAddress",
          "type": "address"
        },
        {
          "internalType": "address",
          "name": "callableContract",
          "type": "address"
        },
        {
          "internalType": "bytes",
          "name": "data",
          "type": "bytes"
        }
      ],
      "name": "callFromBuilding",
      "outputs": [],
      "stateMutability": "nonpayable",
      "type": "function"
    },
    {
      "inputs": [
        {
          "internalType": "address",
          "name": "buildingAddress",
          "type": "address"
        }
      ],
      "name": "getBuildingDetails",
      "outputs": [
        {
          "components": [
            {
              "internalType": "address",
              "name": "addr",
              "type": "address"
            },
            {
              "internalType": "uint256",
              "name": "nftId",
              "type": "uint256"
            },
            {
              "internalType": "string",
              "name": "tokenURI",
              "type": "string"
            },
            {
              "internalType": "address",
              "name": "identity",
              "type": "address"
            },
            {
              "internalType": "address",
              "name": "erc3643Token",
              "type": "address"
            }
          ],
          "internalType": "struct BuildingFactory.BuildingInfo",
          "name": "",
          "type": "tuple"
        }
      ],
      "stateMutability": "view",
      "type": "function"
    },
    {
      "inputs": [],
      "name": "getBuildingList",
      "outputs": [
        {
          "components": [
            {
              "internalType": "address",
              "name": "addr",
              "type": "address"
            },
            {
              "internalType": "uint256",
              "name": "nftId",
              "type": "uint256"
            },
            {
              "internalType": "string",
              "name": "tokenURI",
              "type": "string"
            },
            {
              "internalType": "address",
              "name": "identity",
              "type": "address"
            },
            {
              "internalType": "address",
              "name": "erc3643Token",
              "type": "address"
            }
          ],
          "internalType": "struct BuildingFactory.BuildingInfo[]",
          "name": "",
          "type": "tuple[]"
        }
      ],
      "stateMutability": "view",
      "type": "function"
    },
    {
      "inputs": [
        {
          "internalType": "address",
          "name": "_nft",
          "type": "address"
        },
        {
          "internalType": "address",
          "name": "_uniswapRouter",
          "type": "address"
        },
        {
          "internalType": "address",
          "name": "_uniswapFactory",
          "type": "address"
        },
        {
          "internalType": "address",
          "name": "_buildingBeacon",
          "type": "address"
        },
        {
          "internalType": "address",
          "name": "_onchainIdGateway",
          "type": "address"
        },
        {
          "internalType": "address",
          "name": "_trexGateway",
          "type": "address"
        }
      ],
      "name": "initialize",
      "outputs": [],
      "stateMutability": "nonpayable",
      "type": "function"
    },
    {
      "inputs": [
        {
          "internalType": "string",
          "name": "tokenURI",
          "type": "string"
        }
      ],
      "name": "newBuilding",
      "outputs": [],
      "stateMutability": "nonpayable",
      "type": "function"
    },
    {
      "inputs": [
        {
          "internalType": "address",
          "name": "buildingAddress",
          "type": "address"
        },
        {
          "internalType": "string",
          "name": "name",
          "type": "string"
        },
        {
          "internalType": "string",
          "name": "symbol",
          "type": "string"
        },
        {
          "internalType": "uint8",
          "name": "decimals",
          "type": "uint8"
        }
      ],
      "name": "newERC3643Token",
      "outputs": [],
      "stateMutability": "nonpayable",
      "type": "function"
    },
    {
      "inputs": [],
      "name": "owner",
      "outputs": [
        {
          "internalType": "address",
          "name": "",
          "type": "address"
        }
      ],
      "stateMutability": "view",
      "type": "function"
    },
    {
      "inputs": [],
      "name": "renounceOwnership",
      "outputs": [],
      "stateMutability": "nonpayable",
      "type": "function"
    },
    {
      "inputs": [
        {
          "internalType": "address",
          "name": "newOwner",
          "type": "address"
        }
      ],
      "name": "transferOwnership",
      "outputs": [],
      "stateMutability": "nonpayable",
      "type": "function"
    }
  ],
  "bytecode": "0x608060405234801561001057600080fd5b50612454806100206000396000f3fe60806040523480156200001157600080fd5b50600436106200008e5760003560e01c806344cccdcf1462000093578063665fa4a114620000ac578063715018a614620000db5780638090fc7a14620000e55780638da5cb5b14620000fc578063baff7ae71462000115578063cc2a9a5b146200012c578063db652ec81462000143578063f2fde38b146200015c575b600080fd5b620000aa620000a43660046200141e565b62000173565b005b620000c3620000bd3660046200149c565b620002cd565b604051620000d2919062001570565b60405180910390f35b620000aa6200040c565b620000aa620000f6366004620015a8565b62000424565b62000106620005a7565b604051620000d2919062001640565b620000aa6200012636600462001654565b620005d5565b620000aa6200013d3660046200168c565b62000923565b6200014d62000b83565b604051620000d291906200171b565b620000aa6200016d3660046200149c565b62000cd1565b60006200017f62000d16565b6001600160a01b038086166000818152600784016020526040902054929350911614620001c95760405162461bcd60e51b8152600401620001c09062001783565b60405180910390fd5b6001600160a01b038316600090815260088201602052604090205460ff1615156001146200024d5760405162461bcd60e51b815260206004820152602a60248201527f4275696c64696e67466163746f72793a20496e76616c69642063616c6c61626c604482015269194818dbdb9d1c9858dd60b21b6064820152608401620001c0565b604051626e20cd60e31b81526001600160a01b038516906303710668906200027c9086908690600401620017cc565b6000604051808303816000875af11580156200029c573d6000803e3d6000fd5b505050506040513d6000823e601f3d908101601f19168201604052620002c69190810190620017f2565b5050505050565b6040805160a081018252600080825260208201819052606092820183905291810182905260808101829052906200030362000d16565b6001600160a01b038085166000908152600783016020908152604091829020825160a081018452815490941684526001810154918401919091526002810180549495509293909291840191906200035a9062001871565b80601f0160208091040260200160405190810160405280929190818152602001828054620003889062001871565b8015620003d95780601f10620003ad57610100808354040283529160200191620003d9565b820191906000526020600020905b815481529060010190602001808311620003bb57829003601f168201915b505050918352505060038201546001600160a01b0390811660208301526004909201549091166040909101529392505050565b6200041662000d3a565b62000422600062000d71565b565b60006200043062000d16565b90506001600160a01b038516158015906200046657506001600160a01b0385811660009081526007830160205260409020541615155b620004855760405162461bcd60e51b8152600401620001c09062001783565b6001600160a01b0385811660009081526007830160205260409020600401541615620005105760405162461bcd60e51b815260206004820152603360248201527f4275696c64696e67466163746f72793a20746f6b656e20616c7265616479206360448201527272656174656420666f72206275696c64696e6760681b6064820152608401620001c0565b600581015460009062000530906001600160a01b03168787878762000de2565b6001600160a01b03878116600081815260078601602090815260409182902060040180546001600160a01b031916948616948517905581519283528201929092529192507fb248a19ee520af52b2708cdaad4b5668a428f194685638a13d8a7b9ee84711a3910160405180910390a1505050505050565b7f9016d09d72d40fdae2fd8ceac6b6234c7706214fd39c1cd1e609a0528c199300546001600160a01b031690565b6000620005e162000d16565b60038101546001820154600283015483546040516001600160a01b03938416602482015291831660448301528216606482015292935060009291169063c0c53b8b60e01b9060840160408051601f198184030181529181526020820180516001600160e01b03166001600160e01b0319909416939093179092529051620006689062001344565b62000675929190620017cc565b604051809103906000f08015801562000692573d6000803e3d6000fd5b50825460405163d0def52160e01b81529192506000916001600160a01b039091169063d0def52190620006cc9085908890600401620017cc565b6020604051808303816000875af1158015620006ec573d6000803e3d6000fd5b505050506040513d601f19601f82011682018060405250810190620007129190620018ad565b600480850154604051633e8e6e8b60e01b81529293506000926001600160a01b0390911691633e8e6e8b916200074b9187910162001640565b6020604051808303816000875af11580156200076b573d6000803e3d6000fd5b505050506040513d601f19601f82011682018060405250810190620007919190620018c7565b6040805160a0810182526001600160a01b0386811680835260208084018881528486018c8152878516606087015260006080870181905293845260078c0190925294909120835181546001600160a01b03191693169290921782559251600182015591519293509160028201906200080a908262001951565b5060608201516003820180546001600160a01b03199081166001600160a01b03938416179091556080909301516004909201805484169282169290921790915584811660009081526007870160209081526040822060068901805460018181018355918552929093208154600590930201805492909416919094161782558281015490820155600280820190620008a49084018262001a19565b5060038281015490820180546001600160a01b03199081166001600160a01b039384161790915560049384015493909201805490921692169190911790556040517f02eb67024749e9ed4b0bebae49012408b7466ee9ebbf5a0310811dc2c059d9cd906200091490859062001640565b60405180910390a15050505050565b7ff0c57e16840df040f15088dc2f81fe391c3923bec73e23a9662efc9c229c6a008054600160401b810460ff1615906001600160401b0316600081158015620009695750825b90506000826001600160401b03166001148015620009865750303b155b90508115801562000995575080155b15620009b45760405163f92ee8a960e01b815260040160405180910390fd5b845467ffffffffffffffff191660011785558315620009df57845460ff60401b1916600160401b1785555b620009ea3362000f7a565b6000620009f662000d16565b90508b8160000160006101000a8154816001600160a01b0302191690836001600160a01b031602179055508a8160010160006101000a8154816001600160a01b0302191690836001600160a01b03160217905550898160020160006101000a8154816001600160a01b0302191690836001600160a01b03160217905550888160030160006101000a8154816001600160a01b0302191690836001600160a01b03160217905550878160040160006101000a8154816001600160a01b0302191690836001600160a01b03160217905550868160050160006101000a8154816001600160a01b0302191690836001600160a01b0316021790555060018160080160008e6001600160a01b03166001600160a01b0316815260200190815260200160002060006101000a81548160ff02191690831515021790555050831562000b7657845460ff60401b19168555604051600181527fc7f505b2f371ae2175ee4913f4499e1f2633a7b5936321eed1cdaeb6115181d29060200160405180910390a15b5050505050505050505050565b6060600062000b9162000d16565b6006810180546040805160208084028201810190925282815293945060009084015b8282101562000cc75760008481526020908190206040805160a0810182526005860290920180546001600160a01b031683526001810154938301939093526002830180549293929184019162000c099062001871565b80601f016020809104026020016040519081016040528092919081815260200182805462000c379062001871565b801562000c885780601f1062000c5c5761010080835404028352916020019162000c88565b820191906000526020600020905b81548152906001019060200180831162000c6a57829003601f168201915b505050918352505060038201546001600160a01b0390811660208084019190915260049093015416604090910152908252600192909201910162000bb3565b5050505091505090565b62000cdb62000d3a565b6001600160a01b03811662000d08576000604051631e4fbdf760e01b8152600401620001c0919062001640565b62000d138162000d71565b50565b7f0f40dde8b99b0722537b774c6ef775b5e5a0af035d95bf9802cd87411f806f0090565b3362000d45620005a7565b6001600160a01b03161462000422573360405163118cdaa760e01b8152600401620001c0919062001640565b7f9016d09d72d40fdae2fd8ceac6b6234c7706214fd39c1cd1e609a0528c19930080546001600160a01b031981166001600160a01b03848116918217845560405192169182907f8be0079c531659141344cd1fd0a4f28419497f9722a3daafe3b4186f6b6457e090600090a3505050565b6000856001600160a01b031663c8eebfcc62000e018787878762000f8f565b62000e0b620010b1565b6040518363ffffffff1660e01b815260040162000e2a92919062001c6a565b600060405180830381600087803b15801562000e4557600080fd5b505af115801562000e5a573d6000803e3d6000fd5b50505050600062000e6b8662001135565b8560405160200162000e7f92919062001da1565b60405160208183030381529060405290506000876001600160a01b03166388cc58e46040518163ffffffff1660e01b8152600401602060405180830381865afa15801562000ed1573d6000803e3d6000fd5b505050506040513d601f19601f8201168201806040525081019062000ef79190620018c7565b90506000816001600160a01b031663c1733f68846040518263ffffffff1660e01b815260040162000f29919062001dd4565b602060405180830381865afa15801562000f47573d6000803e3d6000fd5b505050506040513d601f19601f8201168201806040525081019062000f6d9190620018c7565b9998505050505050505050565b62000f8462001153565b62000d13816200119d565b6200100460405180610140016040528060006001600160a01b031681526020016060815260200160608152602001600060ff16815260200160006001600160a01b0316815260200160006001600160a01b03168152602001606081526020016060815260200160608152602001606081525090565b6040805160008082526020820181815282840182815260608401838152608085019095529193849392908490816200104d565b6060815260200190600190039081620010375790505b5060408051610140810182526001600160a01b03808f168252602082018e90529181018c905260ff8b16606082015297811660808901529590951660a08701525060c085019290925260e08401526101008301526101208201529050949350505050565b620010d660405180606001604052806060815260200160608152602001606081525090565b604080516000808252602082018181528284018281526060840190945291928162001112565b6060815260200190600190039081620010fc5790505b506040805160608101825294855260208501939093529183019190915250919050565b60606200114d6001600160a01b0383166014620011a7565b92915050565b7ff0c57e16840df040f15088dc2f81fe391c3923bec73e23a9662efc9c229c6a0054600160401b900460ff166200042257604051631afcd79f60e31b815260040160405180910390fd5b62000cdb62001153565b6060826000620011b984600262001dff565b620011c690600262001e19565b6001600160401b03811115620011e057620011e062001368565b6040519080825280601f01601f1916602001820160405280156200120b576020820181803683370190505b509050600360fc1b8160008151811062001229576200122962001e2f565b60200101906001600160f81b031916908160001a905350600f60fb1b816001815181106200125b576200125b62001e2f565b60200101906001600160f81b031916908160001a90535060006200128185600262001dff565b6200128e90600162001e19565b90505b600181111562001310576f181899199a1a9b1b9c1cb0b131b232b360811b83600f1660108110620012c657620012c662001e2f565b1a60f81b828281518110620012df57620012df62001e2f565b60200101906001600160f81b031916908160001a90535060049290921c91620013088162001e45565b905062001291565b5081156200133c5760405163e22e27eb60e01b81526004810186905260248101859052604401620001c0565b949350505050565b6105bf8062001e6083390190565b6001600160a01b038116811462000d1357600080fd5b634e487b7160e01b600052604160045260246000fd5b604051601f8201601f191681016001600160401b0381118282101715620013a957620013a962001368565b604052919050565b60006001600160401b03821115620013cd57620013cd62001368565b50601f01601f191660200190565b6000620013f2620013ec84620013b1565b6200137e565b90508281528383830111156200140757600080fd5b828260208301376000602084830101529392505050565b6000806000606084860312156200143457600080fd5b8335620014418162001352565b92506020840135620014538162001352565b915060408401356001600160401b038111156200146f57600080fd5b8401601f810186136200148157600080fd5b6200149286823560208401620013db565b9150509250925092565b600060208284031215620014af57600080fd5b8135620014bc8162001352565b9392505050565b60005b83811015620014e0578181015183820152602001620014c6565b50506000910152565b6000815180845262001503816020860160208601620014c3565b601f01601f19169290920160200192915050565b600060018060a01b0380835116845260208301516020850152604083015160a060408601526200154b60a0860182620014e9565b9050816060850151166060860152816080850151166080860152809250505092915050565b602081526000620014bc602083018462001517565b600082601f8301126200159757600080fd5b620014bc83833560208501620013db565b60008060008060808587031215620015bf57600080fd5b8435620015cc8162001352565b935060208501356001600160401b0380821115620015e957600080fd5b620015f78883890162001585565b945060408701359150808211156200160e57600080fd5b506200161d8782880162001585565b925050606085013560ff811681146200163557600080fd5b939692955090935050565b6001600160a01b0391909116815260200190565b6000602082840312156200166757600080fd5b81356001600160401b038111156200167e57600080fd5b6200133c8482850162001585565b60008060008060008060c08789031215620016a657600080fd5b8635620016b38162001352565b95506020870135620016c58162001352565b94506040870135620016d78162001352565b93506060870135620016e98162001352565b92506080870135620016fb8162001352565b915060a08701356200170d8162001352565b809150509295509295509295565b600060208083016020845280855180835260408601915060408160051b87010192506020870160005b828110156200177657603f198886030184526200176385835162001517565b9450928501929085019060010162001744565b5092979650505050505050565b60208082526029908201527f4275696c64696e67466163746f72793a20496e76616c6964206275696c64696e60408201526867206164647265737360b81b606082015260800190565b6001600160a01b03831681526040602082018190526000906200133c90830184620014e9565b6000602082840312156200180557600080fd5b81516001600160401b038111156200181c57600080fd5b8201601f810184136200182e57600080fd5b80516200183f620013ec82620013b1565b8181528560208385010111156200185557600080fd5b62001868826020830160208601620014c3565b95945050505050565b600181811c908216806200188657607f821691505b602082108103620018a757634e487b7160e01b600052602260045260246000fd5b50919050565b600060208284031215620018c057600080fd5b5051919050565b600060208284031215620018da57600080fd5b8151620014bc8162001352565b601f82111562001937576000816000526020600020601f850160051c81016020861015620019125750805b601f850160051c820191505b8181101562001933578281556001016200191e565b5050505b505050565b600019600383901b1c191660019190911b1790565b81516001600160401b038111156200196d576200196d62001368565b62001985816200197e845462001871565b84620018e7565b602080601f831160018114620019b95760008415620019a45750858301515b620019b085826200193c565b86555062001933565b600085815260208120601f198616915b82811015620019ea57888601518255948401946001909101908401620019c9565b508582101562001a095787850151600019600388901b60f8161c191681555b5050505050600190811b01905550565b81810362001a25575050565b62001a31825462001871565b6001600160401b0381111562001a4b5762001a4b62001368565b62001a5c816200197e845462001871565b6000601f82116001811462001a8f576000831562001a7a5750848201545b62001a8684826200193c565b855550620002c6565b600085815260209020601f19841690600086815260209020845b8381101562001acb578286015482556001958601959091019060200162001aa9565b508583101562001a095793015460001960f8600387901b161c19169092555050600190811b01905550565b60008151808452602080850194506020840160005b8381101562001b325781516001600160a01b03168752958201959082019060010162001b0b565b509495945050505050565b60008282518085526020808601955060208260051b8401016020860160005b8481101562001b8e57601f1986840301895262001b7b838351620014e9565b9884019892509083019060010162001b5c565b5090979650505050505050565b60008151808452602080850194506020840160005b8381101562001b325781518752958201959082019060010162001bb0565b600081516060845262001be5606085018262001b9b565b90506020808401518583038287015262001c00838262001af6565b925050604084015185830360408701528281518085528385019150838160051b860101848401935060005b8281101562001c5d57601f1987830301845262001c4a82865162001b9b565b9486019493860193915060010162001c2b565b5098975050505050505050565b6040815262001c856040820184516001600160a01b03169052565b6000602084015161014080606085015262001ca5610180850183620014e9565b91506040860151603f198086850301608087015262001cc58483620014e9565b93506060880151915062001cde60a087018360ff169052565b60808801516001600160a01b03811660c0880152915060a08801516001600160a01b03811660e0880152915060c0880151915061010081878603018188015262001d29858462001af6565b945060e0890151925061012082888703018189015262001d4a868562001af6565b9550818a0151935082888703018589015262001d67868562001af6565b9550808a0151945050508086850301610160870152505062001d8a828262001b3d565b915050828103602084015262001868818562001bce565b6000835162001db5818460208801620014c3565b83519083019062001dcb818360208801620014c3565b01949350505050565b602081526000620014bc6020830184620014e9565b634e487b7160e01b600052601160045260246000fd5b80820281158282048414176200114d576200114d62001de9565b808201808211156200114d576200114d62001de9565b634e487b7160e01b600052603260045260246000fd5b60008162001e575762001e5762001de9565b50600019019056fe60a06040526040516105bf3803806105bf83398101604081905261002291610387565b61002c828261003e565b506001600160a01b031660805261047e565b610047826100fe565b6040516001600160a01b038316907f1cf3b03a6cf19fa2baba4df148e9dcabedea7f8a5c07840e207e5c089be95d3e90600090a28051156100f2576100ed826001600160a01b0316635c60da1b6040518163ffffffff1660e01b8152600401602060405180830381865afa1580156100c3573d6000803e3d6000fd5b505050506040513d601f19601f820116820180604052508101906100e79190610447565b82610211565b505050565b6100fa610288565b5050565b806001600160a01b03163b60000361013957604051631933b43b60e21b81526001600160a01b03821660048201526024015b60405180910390fd5b807fa3f0ad74e5423aebfd80d3ef4346578335a9a72aeaee59ff6cb3582b35133d5080546001600160a01b0319166001600160a01b0392831617905560408051635c60da1b60e01b81529051600092841691635c60da1b9160048083019260209291908290030181865afa1580156101b5573d6000803e3d6000fd5b505050506040513d601f19601f820116820180604052508101906101d99190610447565b9050806001600160a01b03163b6000036100fa57604051634c9c8ce360e01b81526001600160a01b0382166004820152602401610130565b6060600080846001600160a01b03168460405161022e9190610462565b600060405180830381855af49150503d8060008114610269576040519150601f19603f3d011682016040523d82523d6000602084013e61026e565b606091505b50909250905061027f8583836102a9565b95945050505050565b34156102a75760405163b398979f60e01b815260040160405180910390fd5b565b6060826102be576102b982610308565b610301565b81511580156102d557506001600160a01b0384163b155b156102fe57604051639996b31560e01b81526001600160a01b0385166004820152602401610130565b50805b9392505050565b8051156103185780518082602001fd5b604051630a12f52160e11b815260040160405180910390fd5b80516001600160a01b038116811461034857600080fd5b919050565b634e487b7160e01b600052604160045260246000fd5b60005b8381101561037e578181015183820152602001610366565b50506000910152565b6000806040838503121561039a57600080fd5b6103a383610331565b60208401519092506001600160401b03808211156103c057600080fd5b818501915085601f8301126103d457600080fd5b8151818111156103e6576103e661034d565b604051601f8201601f19908116603f0116810190838211818310171561040e5761040e61034d565b8160405282815288602084870101111561042757600080fd5b610438836020830160208801610363565b80955050505050509250929050565b60006020828403121561045957600080fd5b61030182610331565b60008251610474818460208701610363565b9190910192915050565b6080516101276104986000396000601e01526101276000f3fe6080604052600a600c565b005b60186014601a565b60a0565b565b60007f00000000000000000000000000000000000000000000000000000000000000006001600160a01b0316635c60da1b6040518163ffffffff1660e01b8152600401602060405180830381865afa1580156079573d6000803e3d6000fd5b505050506040513d601f19601f82011682018060405250810190609b919060c3565b905090565b3660008037600080366000845af43d6000803e80801560be573d6000f35b3d6000fd5b60006020828403121560d457600080fd5b81516001600160a01b038116811460ea57600080fd5b939250505056fea26469706673582212205c8a2fcdc6f79c1d43b849e2b03f494652cee222b2ec86046b7caaa1405f985f64736f6c63430008180033a26469706673582212209c8a8166d7957742beb42cc87fa60e2907c2568d03e1422d02cb71c8ab91537f64736f6c63430008180033",
  "linkReferences": {},
  "deployedLinkReferences": {}
}