{
  "_format": "hh-sol-artifact-1",
  "contractName": "DLT",
  "sourceName": "contracts/erc6960/DLT.sol",
  "abi": [
    {
      "inputs": [
        {
          "internalType": "string",
          "name": "_name",
          "type": "string"
        },
        {
          "internalType": "string",
          "name": "_symbol",
          "type": "string"
        }
      ],
      "stateMutability": "nonpayable",
      "type": "constructor"
    },
    {
      "anonymous": false,
      "inputs": [
        {
          "indexed": true,
          "internalType": "address",
          "name": "owner",
          "type": "address"
        },
        {
          "indexed": true,
          "internalType": "address",
          "name": "spender",
          "type": "address"
        },
        {
          "indexed": false,
          "internalType": "int64",
          "name": "mainId",
          "type": "int64"
        },
        {
          "indexed": false,
          "internalType": "int64",
          "name": "subId",
          "type": "int64"
        },
        {
          "indexed": false,
          "internalType": "uint256",
          "name": "amount",
          "type": "uint256"
        }
      ],
      "name": "Approval",
      "type": "event"
    },
    {
      "anonymous": false,
      "inputs": [
        {
          "indexed": true,
          "internalType": "address",
          "name": "spender",
          "type": "address"
        },
        {
          "indexed": true,
          "internalType": "address",
          "name": "operator",
          "type": "address"
        },
        {
          "indexed": false,
          "internalType": "bool",
          "name": "approved",
          "type": "bool"
        }
      ],
      "name": "ApprovalForAll",
      "type": "event"
    },
    {
      "anonymous": false,
      "inputs": [
        {
          "indexed": true,
          "internalType": "address",
          "name": "sender",
          "type": "address"
        },
        {
          "indexed": true,
          "internalType": "address",
          "name": "recipient",
          "type": "address"
        },
        {
          "indexed": true,
          "internalType": "int64",
          "name": "mainId",
          "type": "int64"
        },
        {
          "indexed": false,
          "internalType": "int64",
          "name": "subId",
          "type": "int64"
        },
        {
          "indexed": false,
          "internalType": "uint256",
          "name": "amount",
          "type": "uint256"
        }
      ],
      "name": "Transfer",
      "type": "event"
    },
    {
      "anonymous": false,
      "inputs": [
        {
          "indexed": true,
          "internalType": "address",
          "name": "spender",
          "type": "address"
        },
        {
          "indexed": true,
          "internalType": "address",
          "name": "sender",
          "type": "address"
        },
        {
          "indexed": true,
          "internalType": "address",
          "name": "recipient",
          "type": "address"
        },
        {
          "indexed": false,
          "internalType": "int64[]",
          "name": "mainIds",
          "type": "int64[]"
        },
        {
          "indexed": false,
          "internalType": "int64[]",
          "name": "subIds",
          "type": "int64[]"
        },
        {
          "indexed": false,
          "internalType": "uint256[]",
          "name": "amounts",
          "type": "uint256[]"
        }
      ],
      "name": "TransferBatch",
      "type": "event"
    },
    {
      "anonymous": false,
      "inputs": [
        {
          "indexed": false,
          "internalType": "string",
          "name": "oldValue",
          "type": "string"
        },
        {
          "indexed": false,
          "internalType": "string",
          "name": "newValue",
          "type": "string"
        },
        {
          "indexed": true,
          "internalType": "int64",
          "name": "mainId",
          "type": "int64"
        }
      ],
      "name": "URI",
      "type": "event"
    },
    {
      "inputs": [
        {
          "internalType": "address",
          "name": "owner",
          "type": "address"
        },
        {
          "internalType": "address",
          "name": "spender",
          "type": "address"
        },
        {
          "internalType": "int64",
          "name": "mainId",
          "type": "int64"
        },
        {
          "internalType": "int64",
          "name": "subId",
          "type": "int64"
        }
      ],
      "name": "allowance",
      "outputs": [
        {
          "internalType": "uint256",
          "name": "",
          "type": "uint256"
        }
      ],
      "stateMutability": "view",
      "type": "function"
    },
    {
      "inputs": [
        {
          "internalType": "address",
          "name": "spender",
          "type": "address"
        },
        {
          "internalType": "int64",
          "name": "mainId",
          "type": "int64"
        },
        {
          "internalType": "int64",
          "name": "subId",
          "type": "int64"
        },
        {
          "internalType": "uint256",
          "name": "amount",
          "type": "uint256"
        }
      ],
      "name": "approve",
      "outputs": [
        {
          "internalType": "bool",
          "name": "",
          "type": "bool"
        }
      ],
      "stateMutability": "nonpayable",
      "type": "function"
    },
    {
      "inputs": [
        {
          "internalType": "address[]",
          "name": "accounts",
          "type": "address[]"
        },
        {
          "internalType": "int64[]",
          "name": "mainIds",
          "type": "int64[]"
        },
        {
          "internalType": "int64[]",
          "name": "subIds",
          "type": "int64[]"
        }
      ],
      "name": "balanceOfBatch",
      "outputs": [
        {
          "internalType": "uint256[]",
          "name": "",
          "type": "uint256[]"
        }
      ],
      "stateMutability": "view",
      "type": "function"
    },
    {
      "inputs": [
        {
          "internalType": "address",
          "name": "owner",
          "type": "address"
        },
        {
          "internalType": "address",
          "name": "operator",
          "type": "address"
        }
      ],
      "name": "isApprovedForAll",
      "outputs": [
        {
          "internalType": "bool",
          "name": "",
          "type": "bool"
        }
      ],
      "stateMutability": "view",
      "type": "function"
    },
    {
      "inputs": [],
      "name": "name",
      "outputs": [
        {
          "internalType": "string",
          "name": "",
          "type": "string"
        }
      ],
      "stateMutability": "view",
      "type": "function"
    },
    {
      "inputs": [
        {
          "internalType": "address",
          "name": "sender",
          "type": "address"
        },
        {
          "internalType": "address",
          "name": "recipient",
          "type": "address"
        },
        {
          "internalType": "int64[]",
          "name": "mainIds",
          "type": "int64[]"
        },
        {
          "internalType": "int64[]",
          "name": "subIds",
          "type": "int64[]"
        },
        {
          "internalType": "uint256[]",
          "name": "amounts",
          "type": "uint256[]"
        },
        {
          "internalType": "bytes",
          "name": "data",
          "type": "bytes"
        }
      ],
      "name": "safeBatchTransferFrom",
      "outputs": [
        {
          "internalType": "bool",
          "name": "",
          "type": "bool"
        }
      ],
      "stateMutability": "nonpayable",
      "type": "function"
    },
    {
      "inputs": [
        {
          "internalType": "address",
          "name": "sender",
          "type": "address"
        },
        {
          "internalType": "address",
          "name": "recipient",
          "type": "address"
        },
        {
          "internalType": "int64",
          "name": "mainId",
          "type": "int64"
        },
        {
          "internalType": "int64",
          "name": "subId",
          "type": "int64"
        },
        {
          "internalType": "uint256",
          "name": "amount",
          "type": "uint256"
        }
      ],
      "name": "safeTransferFrom",
      "outputs": [
        {
          "internalType": "bool",
          "name": "",
          "type": "bool"
        }
      ],
      "stateMutability": "nonpayable",
      "type": "function"
    },
    {
      "inputs": [
        {
          "internalType": "address",
          "name": "sender",
          "type": "address"
        },
        {
          "internalType": "address",
          "name": "recipient",
          "type": "address"
        },
        {
          "internalType": "int64",
          "name": "mainId",
          "type": "int64"
        },
        {
          "internalType": "int64",
          "name": "subId",
          "type": "int64"
        },
        {
          "internalType": "uint256",
          "name": "amount",
          "type": "uint256"
        },
        {
          "internalType": "bytes",
          "name": "data",
          "type": "bytes"
        }
      ],
      "name": "safeTransferFrom",
      "outputs": [
        {
          "internalType": "bool",
          "name": "",
          "type": "bool"
        }
      ],
      "stateMutability": "nonpayable",
      "type": "function"
    },
    {
      "inputs": [
        {
          "internalType": "address",
          "name": "operator",
          "type": "address"
        },
        {
          "internalType": "bool",
          "name": "approved",
          "type": "bool"
        }
      ],
      "name": "setApprovalForAll",
      "outputs": [],
      "stateMutability": "nonpayable",
      "type": "function"
    },
    {
      "inputs": [
        {
          "internalType": "address",
          "name": "account",
          "type": "address"
        },
        {
          "internalType": "int64",
          "name": "mainId",
          "type": "int64"
        },
        {
          "internalType": "int64",
          "name": "subId",
          "type": "int64"
        }
      ],
      "name": "subBalanceOf",
      "outputs": [
        {
          "internalType": "uint256",
          "name": "",
          "type": "uint256"
        }
      ],
      "stateMutability": "view",
      "type": "function"
    },
    {
      "inputs": [],
      "name": "symbol",
      "outputs": [
        {
          "internalType": "string",
          "name": "",
          "type": "string"
        }
      ],
      "stateMutability": "view",
      "type": "function"
    },
    {
      "inputs": [
        {
          "internalType": "address",
          "name": "sender",
          "type": "address"
        },
        {
          "internalType": "address",
          "name": "recipient",
          "type": "address"
        },
        {
          "internalType": "int64",
          "name": "mainId",
          "type": "int64"
        },
        {
          "internalType": "int64",
          "name": "subId",
          "type": "int64"
        },
        {
          "internalType": "uint256",
          "name": "amount",
          "type": "uint256"
        }
      ],
      "name": "transferFrom",
      "outputs": [
        {
          "internalType": "bool",
          "name": "",
          "type": "bool"
        }
      ],
      "stateMutability": "nonpayable",
      "type": "function"
    }
  ],
  "bytecode": "0x60806040523480156200001157600080fd5b5060405162001c3438038062001c34833981016040819052620000349162000122565b60036200004283826200021d565b5060046200005182826200021d565b505050620002e9565b634e487b7160e01b600052604160045260246000fd5b600082601f8301126200008257600080fd5b81516001600160401b03808211156200009f576200009f6200005a565b604051601f8301601f19908116603f01168101908282118183101715620000ca57620000ca6200005a565b8160405283815260209250866020858801011115620000e857600080fd5b600091505b838210156200010c5785820183015181830184015290820190620000ed565b6000602085830101528094505050505092915050565b600080604083850312156200013657600080fd5b82516001600160401b03808211156200014e57600080fd5b6200015c8683870162000070565b935060208501519150808211156200017357600080fd5b50620001828582860162000070565b9150509250929050565b600181811c90821680620001a157607f821691505b602082108103620001c257634e487b7160e01b600052602260045260246000fd5b50919050565b601f82111562000218576000816000526020600020601f850160051c81016020861015620001f35750805b601f850160051c820191505b818110156200021457828155600101620001ff565b5050505b505050565b81516001600160401b038111156200023957620002396200005a565b62000251816200024a84546200018c565b84620001c8565b602080601f831160018114620002895760008415620002705750858301515b600019600386901b1c1916600185901b17855562000214565b600085815260208120601f198616915b82811015620002ba5788860151825594840194600190910190840162000299565b5085821015620002d95787850151600019600388901b60f8161c191681555b5050505050600190811b01905550565b61193b80620002f96000396000f3fe608060405234801561001057600080fd5b50600436106100b45760003560e01c80639040fb13116100715780639040fb131461018257806395d89b4114610195578063965e2e121461019d578063a22cb465146101bd578063e43bdfe1146101d2578063e985e9c5146101e557600080fd5b806305ecb790146100b957806306fdde031461011157806312849f01146101265780633523dc6c146101495780635f3d67741461015c57806383eddad01461016f575b600080fd5b6100fe6100c73660046110b9565b600791820b60009081526001602090815260408083206001600160a01b039690961683529481528482209290930b81529152205490565b6040519081526020015b60405180910390f35b6101196101f8565b6040516101089190611142565b6101396101343660046111e3565b610286565b6040519015158152602001610108565b6101396101573660046112cb565b6103f6565b61013961016a366004611327565b610421565b61013961017d3660046112cb565b61048a565b610139610190366004611388565b610499565b6101196104b7565b6101b06101ab366004611484565b6104c4565b604051610108919061155a565b6101d06101cb36600461156d565b610632565b005b6100fe6101e03660046115a9565b610641565b6101396101f33660046115fd565b610658565b6003805461020590611630565b80601f016020809104026020016040519081016040528092919081815260200182805461023190611630565b801561027e5780601f106102535761010080835404028352916020019161027e565b820191906000526020600020905b81548152906001019060200180831161026157829003601f168201915b505050505081565b6000336102938c82610686565b6102ff5760405162461bcd60e51b815260206004820152603260248201527f444c543a2063616c6c6572206973206e6f7420746f6b656e206f776e6572206f6044820152711c88185c1c1c9bdd995908199bdc88185b1b60721b60648201526084015b60405180910390fd5b6103e48c8c8c8c80806020026020016040519081016040528093929190818152602001838360200280828437600081840152601f19601f820116905080830192505050505050508b8b8080602002602001604051908101604052809392919081815260200183836020028082843760009201919091525050604080516020808f0282810182019093528e82529093508e92508d91829185019084908082843760009201919091525050604080516020601f8e018190048102820181019092528c815292508c91508b90819084018382808284376000920191909152506106b492505050565b5060019b9a5050505050505050505050565b60006104158686868686604051806020016040528060008152506109bd565b50600195945050505050565b6000336001600160a01b03861681900361047d5760405162461bcd60e51b815260206004820152601e60248201527f444c543a20617070726f76616c20746f2063757272656e74206f776e6572000060448201526064016102f6565b61041581878787876109e7565b60006104158686868686610b2b565b60006104a98787878787876109bd565b5060015b9695505050505050565b6004805461020590611630565b606085841480156104d457508582145b6105375760405162461bcd60e51b815260206004820152602e60248201527f444c543a206163636f756e74732c206d61696e49647320616e6420696473206c60448201526d0cadccee8d040dad2e6dac2e8c6d60931b60648201526084016102f6565b60008667ffffffffffffffff81111561055257610552611372565b60405190808252806020026020018201604052801561057b578160200160208202803683370190505b50905060005b878110156106265761060189898381811061059e5761059e61166a565b90506020020160208101906105b39190611680565b8888848181106105c5576105c561166a565b90506020020160208101906105da919061169b565b8787858181106105ec576105ec61166a565b90506020020160208101906100c7919061169b565b8282815181106106135761061361166a565b6020908102919091010152600101610581565b50979650505050505050565b61063d338383610b5c565b5050565b600061064f85858585610c21565b95945050505050565b6001600160a01b038083166000908152602081815260408083209385168352929052205460ff165b92915050565b6000816001600160a01b0316836001600160a01b031614806106ad57506106ad8383610658565b9392505050565b825184511480156106c6575081518451145b61072b5760405162461bcd60e51b815260206004820152603060248201527f444c543a206d61696e4964732c2073756249647320616e6420616d6f756e747360448201526f040d8cadccee8d040dad2e6dac2e8c6d60831b60648201526084016102f6565b6001600160a01b0385166107515760405162461bcd60e51b81526004016102f6906116b6565b3360005b85518110156109305760008682815181106107725761077261166a565b6020026020010151905060008683815181106107905761079061166a565b6020026020010151905060008684815181106107ae576107ae61166a565b602002602001015190506000600160008560070b60070b815260200190815260200160002060008d6001600160a01b03166001600160a01b0316815260200190815260200160002060008460070b60070b81526020019081526020016000205490506108308c8c86868660405180602001604052806000815250505050505050565b818110156108505760405162461bcd60e51b81526004016102f6906116f7565b818103600160008660070b60070b815260200190815260200160002060008e6001600160a01b03166001600160a01b0316815260200190815260200160002060008560070b60070b81526020019081526020016000208190555081600160008660070b60070b815260200190815260200160002060008d6001600160a01b03166001600160a01b0316815260200190815260200160002060008560070b60070b8152602001908152602001600020600082825461090d919061173d565b909155505060408051602081019091526000905250505050806001019050610755565b50856001600160a01b0316876001600160a01b0316826001600160a01b03167f3d3612aedbab64ec845a17d1508b936b04c073ee96a02b84c355a7eb025a18d288888860405161098293929190611792565b60405180910390a4610998878787878787610c63565b6109b45760405162461bcd60e51b81526004016102f6906117cb565b50505050505050565b336109c88782610686565b6109d9576109d98782878787610d65565b6109b4878787878787610ddd565b6001600160a01b038516610a485760405162461bcd60e51b815260206004820152602260248201527f444c543a20617070726f76652066726f6d20746865207a65726f206164647265604482015261737360f01b60648201526084016102f6565b6001600160a01b038416610a9e5760405162461bcd60e51b815260206004820181905260248201527f444c543a20617070726f766520746f20746865207a65726f206164647265737360448201526064016102f6565b6001600160a01b038581166000818152600260209081526040808320948916808452948252808320600789810b8086529184528285209089900b808652908452938290208790558151908152918201929092529081018490527f20228d921cee20e1bee39b210de025b31c291c9a9eb96925595c91db3db75c329060600160405180910390a35050505050565b33610b368682610686565b610b4757610b478682868686610d65565b610b548686868686610e14565b505050505050565b816001600160a01b0316836001600160a01b031603610bb65760405162461bcd60e51b815260206004820152601660248201527522262a1d1030b8383937bb32903a379031b0b63632b960511b60448201526064016102f6565b6001600160a01b0383811660008181526020818152604080832094871680845294825291829020805460ff191686151590811790915591519182527f17307eab39ab6107e8899845ad3d59bd9653f200f220920489ca2b5937696c31910160405180910390a3505050565b6001600160a01b039384166000908152600260209081526040808320959096168252938452848120600793840b825284528481209190920b8252909152205490565b60006001600160a01b0386163b15610d5d576040516383fbceb960e01b81526001600160a01b038716906383fbceb990610cab9033908b908a908a908a908a90600401611817565b6020604051808303816000875af1925050508015610ce6575060408051601f3d908101601f19168201909252610ce39181019061188a565b60015b610d43573d808015610d14576040519150601f19603f3d011682016040523d82523d6000602084013e610d19565b606091505b508051600003610d3b5760405162461bcd60e51b81526004016102f6906117cb565b805181602001fd5b6001600160e01b0319166383fbceb960e01b1490506104ad565b5060016104ad565b6000610d7386868686610c21565b90506000198114610b545781811015610dce5760405162461bcd60e51b815260206004820152601b60248201527f444c543a20696e73756666696369656e7420616c6c6f77616e6365000000000060448201526064016102f6565b610b54868686868686036109e7565b610dea8686868686610e14565b610df8868686868686610fc0565b610b545760405162461bcd60e51b81526004016102f6906117cb565b6001600160a01b038516610e765760405162461bcd60e51b815260206004820152602360248201527f444c543a207472616e736665722066726f6d20746865207a65726f206164647260448201526265737360e81b60648201526084016102f6565b6001600160a01b038416610e9c5760405162461bcd60e51b81526004016102f6906116b6565b6040805160208082018352600091829052600786810b8352600182528383206001600160a01b038a16845282528383209086900b835290522054811115610ef55760405162461bcd60e51b81526004016102f6906116f7565b600783810b60009081526001602090815260408083206001600160a01b03808b1685528184528285209588900b808652958452828520805488900390558916845282528083209383529290529081208054839290610f5490849061173d565b909155505060408051600784810b82526020820184905285900b916001600160a01b0380881692908916917fd3f5ba918fcf5f0ed2a6add09f440b150c54a8eba5a07bbba0695eea7bbf1efa910160405180910390a46040805160208101909152600090525050505050565b60006001600160a01b0386163b15610d5d57604051630f18968560e01b81526001600160a01b03871690630f189685906110089033908b908a908a908a908a906004016118b4565b6020604051808303816000875af1925050508015611043575060408051601f3d908101601f191682019092526110409181019061188a565b60015b611071573d808015610d14576040519150601f19603f3d011682016040523d82523d6000602084013e610d19565b6001600160e01b031916630f18968560e01b1490506104ad565b80356001600160a01b03811681146110a257600080fd5b919050565b8035600781900b81146110a257600080fd5b6000806000606084860312156110ce57600080fd5b6110d78461108b565b92506110e5602085016110a7565b91506110f3604085016110a7565b90509250925092565b6000815180845260005b8181101561112257602081850181015186830182015201611106565b506000602082860101526020601f19601f83011685010191505092915050565b6020815260006106ad60208301846110fc565b60008083601f84011261116757600080fd5b50813567ffffffffffffffff81111561117f57600080fd5b6020830191508360208260051b850101111561119a57600080fd5b9250929050565b60008083601f8401126111b357600080fd5b50813567ffffffffffffffff8111156111cb57600080fd5b60208301915083602082850101111561119a57600080fd5b60008060008060008060008060008060c08b8d03121561120257600080fd5b61120b8b61108b565b995061121960208c0161108b565b985060408b013567ffffffffffffffff8082111561123657600080fd5b6112428e838f01611155565b909a50985060608d013591508082111561125b57600080fd5b6112678e838f01611155565b909850965060808d013591508082111561128057600080fd5b61128c8e838f01611155565b909650945060a08d01359150808211156112a557600080fd5b506112b28d828e016111a1565b915080935050809150509295989b9194979a5092959850565b600080600080600060a086880312156112e357600080fd5b6112ec8661108b565b94506112fa6020870161108b565b9350611308604087016110a7565b9250611316606087016110a7565b949793965091946080013592915050565b6000806000806080858703121561133d57600080fd5b6113468561108b565b9350611354602086016110a7565b9250611362604086016110a7565b9396929550929360600135925050565b634e487b7160e01b600052604160045260246000fd5b60008060008060008060c087890312156113a157600080fd5b6113aa8761108b565b95506113b86020880161108b565b94506113c6604088016110a7565b93506113d4606088016110a7565b92506080870135915060a087013567ffffffffffffffff808211156113f857600080fd5b818901915089601f83011261140c57600080fd5b81358181111561141e5761141e611372565b604051601f8201601f19908116603f0116810190838211818310171561144657611446611372565b816040528281528c602084870101111561145f57600080fd5b8260208601602083013760006020848301015280955050505050509295509295509295565b6000806000806000806060878903121561149d57600080fd5b863567ffffffffffffffff808211156114b557600080fd5b6114c18a838b01611155565b909850965060208901359150808211156114da57600080fd5b6114e68a838b01611155565b909650945060408901359150808211156114ff57600080fd5b5061150c89828a01611155565b979a9699509497509295939492505050565b60008151808452602080850194506020840160005b8381101561154f57815187529582019590820190600101611533565b509495945050505050565b6020815260006106ad602083018461151e565b6000806040838503121561158057600080fd5b6115898361108b565b91506020830135801515811461159e57600080fd5b809150509250929050565b600080600080608085870312156115bf57600080fd5b6115c88561108b565b93506115d66020860161108b565b92506115e4604086016110a7565b91506115f2606086016110a7565b905092959194509250565b6000806040838503121561161057600080fd5b6116198361108b565b91506116276020840161108b565b90509250929050565b600181811c9082168061164457607f821691505b60208210810361166457634e487b7160e01b600052602260045260246000fd5b50919050565b634e487b7160e01b600052603260045260246000fd5b60006020828403121561169257600080fd5b6106ad8261108b565b6000602082840312156116ad57600080fd5b6106ad826110a7565b60208082526021908201527f444c543a207472616e7366657220746f20746865207a65726f206164647265736040820152607360f81b606082015260800190565b60208082526026908201527f444c543a20696e73756666696369656e742062616c616e636520666f7220747260408201526530b739b332b960d11b606082015260800190565b8082018082111561068057634e487b7160e01b600052601160045260246000fd5b60008151808452602080850194506020840160005b8381101561154f57815160070b87529582019590820190600101611773565b6060815260006117a5606083018661175e565b82810360208401526117b7818661175e565b905082810360408401526104ad818561151e565b6020808252602c908201527f444c543a207472616e7366657220746f206e6f6e20444c54526563656976657260408201526b1034b6b83632b6b2b73a32b960a11b606082015260800190565b6001600160a01b0387811682528616602082015260c0604082018190526000906118439083018761175e565b8281036060840152611855818761175e565b90508281036080840152611869818661151e565b905082810360a084015261187d81856110fc565b9998505050505050505050565b60006020828403121561189c57600080fd5b81516001600160e01b0319811681146106ad57600080fd5b6001600160a01b03878116825286166020820152600785810b604083015284900b60608201526080810183905260c060a082018190526000906118f9908301846110fc565b9897505050505050505056fea26469706673582212209d1be7aa3fecc7c71b4c7e59a4faa9f044dc01c8121e41ddf4239e6ad8836d1564736f6c63430008180033",
  "linkReferences": {},
  "deployedLinkReferences": {}
}